:020000040000FA
:100000000C9435000C945D000C945D000C945D0024
:100010000C945D000C945D000C945D000C945D00EC
:100020000C945D000C945D000C945D000C945D00DC
:100030000C945D000C945D000C945D000C945D00CC
:100040000C949E050C945D000C945D000C945D0076
:100050000C945D000C945D000C945D000C945D00AC
:100060000C945D000C945D001D0711241FBECFEFA2
:10007000D8E0DEBFCDBF21E0AAE2B1E001C01D9211
:10008000AC39B207E1F711E0A0E0B1E0E2E5FFE052
:1000900002C005900D92AA32B107D9F710E0C5E36E
:1000A000D0E004C02197FE010E949C07C433D10711
:1000B000C9F70E94E8050C94A7070C940000E7E537
:1000C000F1E0DC012D913D914C91219331934193CD
:1000D000B1E0EF36FB07A9F708953FB7F894809198
:1000E000530190915401A0915501B091560126B54C
:1000F000A89B05C02F3F19F00196A11DB11D3FBF60
:10010000BA2FA92F982F8827BC01CD01620F711D2E
:10011000811D911D42E0660F771F881F991F4A9528
:10012000D1F70895AF92BF92DF92EF92FF920F93B3
:100130001F93CF93DF93D0908F0180919201909184
:100140009301A0919401B0919501892B8A2B8B2B5F
:10015000D9F00E946D0000918B0110918C012091CB
:100160008D0130918E01601B710B820B930B0091FE
:1001700092011091930120919401309195016017A3
:10018000710782079307C8F20E946D0060938B018C
:1001900070938C0180938D0190938E01E0919A0170
:1001A000F0919B01309759F0409196015091970141
:1001B00060919801709199018D2D0995D82EC0916B
:1001C0008901D0918A0189E7E82E81E0F82E870124
:1001D000209749F181E00938180729F18D85882396
:1001E000F1F0E881F981A284B3840680F781E02DE3
:1001F000CE010995BC01CE01F5010995F801918365
:10020000808380919001909191018436910508F44A
:100210001C860C80DD81C02D0E5F1F4FD9CFF801E9
:1002200011821082EECFC0918901D0918A0108E03D
:1002300010E02097A9F08D85882361F04E855F85B9
:100240006A817B81E881F9810280F381E02D2D2D87
:10025000CE0109950C80DD81C02D0150110949F7AF
:10026000C0918901D0918A012097C9F0F9E8EF1671
:10027000F1E0FF06A1F08D85882351F0F701608140
:100280007181E881F9810484F585E02DCE0109951D
:100290000C80DD81C02DF2E0EF0EF11CE5CF8091E6
:1002A0007701909178019C012F5F3F4F3093780147
:1002B0002093770149970CF44AC08FB7F8942091A6
:1002C0006F013091700140917101509172018FBFA7
:1002D0008091730190917401A0917501B0917601A4
:1002E000281B390B4A0B5B0B21F421E030E040E086
:1002F00050E0E0917701F091780188EE93E0E89F7B
:10030000B001E99F700DF89F700D1124072E000CAD
:10031000880B990B0E94450730939101209390011F
:1003200010927801109277012FB7F89480916F01A5
:1003300090917001A0917101B09172012FBF8093D3
:10034000730190937401A0937501B0937601DF91CE
:10035000CF911F910F91FF90EF90DF90BF90AF90E2
:1003600008958F929F92AF92BF92CF92DF92EF92B9
:10037000FF924B015C010E946D006B017C010E94A9
:100380006D006C197D098E099F09683E73408105D7
:100390009105A8F321E0821A9108A108B10888EE1E
:1003A000C80E83E0D81EE11CF11C81149104A10445
:1003B000B10429F7FF90EF90DF90CF90BF90AF90FE
:1003C0009F908F90089580E991E00895AF92BF9239
:1003D000CF92DF92EF92FF920F931F93CF93DF9311
:1003E00000D01F92CDB7DEB75A0119821A821B8244
:1003F000882361F18B01E1E0F0E0E82EF12CD801D7
:100400002D918D012223F1F06F01B1E0CB1AD108BB
:10041000D501AC0DBD1D4C914423A1F030E02F5F00
:100420003F4FD7010E946707A42FB0E011969B01B0
:10043000AC010E947D07A1E0B0E0AC0FBD1FAC0D88
:10044000BD1D8C933196E430F105C9F669817A813E
:100450008B810F900F900F90DF91CF911F910F9193
:10046000FF90EF90DF90CF90BF90AF90089581E024
:1004700090E008950F931F93CF93DF9320912F0166
:100480002F5F322F377030932F0120FF2BC020E8D1
:1004900031FD2064347009F02062205FFC01EC0122
:1004A000239600E011E06785662329F070E0C8011B
:1004B0000E9431076F5F6187822F869F080E80E060
:1004C000811D1124811110C01682662311F0615024
:1004D00061873196EC17FD0731F7DF91CF911F91BE
:1004E0000F91089520E0D4CF81508683EECF4F92B4
:1004F0005F927F928F929F92AF92BF92CF92DF9244
:10050000EF92FF920F931F93CF93DF932C01EB0198
:100510000E946D00F20126893789621B730B6A30D5
:100520007105B0F3F8948A819B81181619060CF0B6
:10053000CDC1E881F98165B1862E689480F835B126
:100540003E7F35B9DA848F812D2D281B822F2F8392
:100550004C85042E000C550BAA81BB817889FF8441
:10056000E9887F5FF394E3949E819884B984AB8497
:100570001181C12C6C2D0C2D2C2D218111278894DB
:100580002111280F08F42FEF8195889470FD120F28
:100590001795889471FD120F1795889472FD120FAC
:1005A0001795889473FD120F1795889474FD120F98
:1005B0001795889475FD120F1795889476FD120F84
:1005C0001795889477FD120F17958894622F7111F3
:1005D000612F8D0D162F002C85B800C017FF35B97F
:1005E00020816627889400C000C0002C35B92111F5
:1005F000290F00C0002C85B800C016FF35B908F4DB
:100600002FEF9195889400C000C0002C35B9F0FC04
:10061000620F00C0002C85B800C015FF35B9679582
:100620008894F1FC620F00C000C0002C35B96795BA
:10063000889400C0002C85B800C014FF35B9F2FCC6
:10064000620F6795889400C000C0002C35B9F3FC98
:10065000620F00C0002C85B800C013FF35B9679544
:100660008894F4FC620F00C000C0002C35B9679577
:10067000889400C0002C85B800C012FF35B9F5FC85
:10068000620F6795889400C000C0002C35B9F6FC55
:10069000620F00C0002C85B800C011FF35B9679506
:1006A0008894F7FC620F00C000C0002C35B9679534
:1006B000889400C0002C85B800C010FF35B9122FF7
:1006C000F110162F9B0D00C000C0002C35B900C0E2
:1006D00000C0002C85B800C017FF35B922816627FD
:1006E000889400C000C0002C35B92111290D00C02C
:1006F000002C85B800C016FF35B908F42FEFE40FC1
:10070000F51F00C000C0002C35B9E0FC620F00C02E
:10071000002C85B800C015FF35B967958894E1FCB9
:10072000620F00C000C0002C35B96795889400C0E6
:10073000002C85B800C014FF35B9E2FC620F679544
:10074000889400C000C0002C35B9E3FC620F00C0E3
:10075000002C85B800C013FF35B967958894E4FC78
:10076000620F00C000C0002C35B96795889400C0A6
:10077000002C85B800C012FF35B9E5FC620F679503
:10078000889400C000C0002C35B9E6FC620F00C0A0
:10079000002C85B800C011FF35B967958894E7FC37
:1007A000620F00C000C0002C35B96795889400C066
:1007B000002C85B800C010FF35B9122FE110162F9C
:1007C000919400C000C0002C35B99A0C00C000C044
:1007D00085B800C017FF35B921816627889400C00D
:1007E00000C0002C35B92111280F00C0002C85B89D
:1007F00000C016FF35B908F42FEF8195889400C02A
:1008000000C0002C35B970FD620F00C0002C85B807
:1008100000C015FF35B96795889471FD620F00C05F
:1008200000C0002C35B96795889400C0002C85B8AD
:1008300000C014FF35B972FD620F6795889400C03F
:1008400000C0002C35B973FD620F00C0002C85B8C4
:1008500000C013FF35B96795889474FD620F00C01E
:1008600000C0002C35B96795889400C0002C85B86D
:1008700000C012FF35B975FD620F6795889400C0FE
:1008800000C0002C35B976FD620F00C0002C85B881
:1008900000C011FF35B96795889477FD620F00C0DD
:1008A00000C0002C35B96795889400C0002C85B82D
:1008B00000C010FF35B9122F7111162F8D0D00C019
:1008C00000C0002C35B9119709F086CEEA81FB8172
:1008D0002EE130E0DF010E94760730E020E0A90140
:1008E000AAE9EA9F0E0E411DFA9F400D511D1124E9
:1008F0004F0F511DDC01CB01840F951FA11DB11DB0
:10090000893E43E09407A105B10508F434C0885E30
:100910009340A109B10942E0B695A79597958795AF
:100920004A95D1F747E0849F080E211D949F200D22
:10093000311D1124290F311D60912E0170E0860FA9
:10094000971F820F931F40916F015091700160912A
:10095000710170917201292F3327420F531F611DBE
:10096000711D40936F0150937001609371017093FA
:10097000720180932E0178940E946D00F201778BB2
:10098000668BDF91CF911F910F91FF90EF90DF90D9
:10099000CF90BF90AF909F908F907F905F904F903F
:1009A0000895209A08956F927F928F92CF92DF924E
:1009B000EF92FF920F931F93CF93DF93CDB7DEB7E4
:1009C00062970FB6F894DEBF0FBECDBF8C016B01EE
:1009D0007A01822FA801475F5F4FB8016A5F7F4F9E
:1009E0000E94E6013B01882ED8011C962C91C7017C
:1009F000F7FE04C0882799278E199F09DA82C982D9
:100A00009C838B839E838D83688A798A8A8A21302E
:100A100049F5CE0101960E943A0283E08D871F8638
:100A20001E86F7FE02C08DEF8D87D801ED91FC91F7
:100A30000088F189E02DBE016F5F7F4FC8010995E5
:100A400062960FB6F894DEBF0FBECDBFDF91CF9197
:100A50001F910F91FF90EF90DF90CF908F907F903C
:100A60006F9008951C861B861A86198618861F8229
:100A7000D4CFCF92DF92EF92FF920F931F93CF9339
:100A8000DF93CDB7DEB762970FB6F894DEBF0FBE27
:100A9000CDBF8C016B017A01822FA801475F5F4FA8
:100AA000B8016A5F7F4F0E94E6019B01482FD80181
:100AB0001C968C91DA82C982FC82EB82FE82ED82E6
:100AC000288B398B4A8B813009F5CE0101960E9423
:100AD0003A021D861F861E86D801ED91FC91008882
:100AE000F189E02DBE016F5F7F4FC80109956296C5
:100AF0000FB6F894DEBF0FBECDBFDF91CF911F912F
:100B00000F91FF90EF90DF90CF9008951C861B8689
:100B10001A86198618861F82DCCF089590E080E03F
:100B20000895FC0164870895FC01848590E0089590
:100B3000FC018685978508950E94A2071F920F9257
:100B40000FB60F9211242F933F938F939F93AF93E0
:100B5000BF9380916F0190917001A0917101B0914C
:100B600072013091520123E0230F2D3758F5019681
:100B7000A11DB11D2093520180936F0190937001CC
:100B8000A0937101B093720180915301909154012F
:100B9000A0915501B09156010196A11DB11D809300
:100BA000530190935401A0935501B0935601BF9106
:100BB000AF919F918F913F912F910F900FBE0F900A
:100BC0001F90189526E8230F0296A11DB11DD2CFC4
:100BD000CF93DF9300D01F92CDB7DEB7789484B562
:100BE000826084BD84B5816084BD85B5826085BD29
:100BF00085B5816085BD80916E00816080936E00B7
:100C000010928100809181008260809381008091A8
:100C10008100816080938100809180008160809359
:100C200080008091B10084608093B1008091B00019
:100C300081608093B00080917A00846080937A0014
:100C400080917A00826080937A0080917A0081603E
:100C500080937A0080917A00806880937A00109265
:100C6000C10080914A01811157C010923501109244
:100C700034018FEF809338018093390180933A01DA
:100C800080933B0180933C0180933D0181E0809300
:100C90003E0180933F01109241011092400180E794
:100CA00097E1909343018093420183E090E0909319
:100CB0004501809344011092470110924601109221
:100CC0003701109236018091890190918A01892B18
:100CD00031F482E391E090938A0180938901E0915D
:100CE0003001F0913101309721F082E391E095835A
:100CF000848382E391E090933101809330011092DC
:100D000049011092480188E191E09093330180936A
:100D1000320181E080934A01209A87E591E0909327
:100D200035018093340188E090E0909341018093F5
:100D300040018091920190919301A0919401B09112
:100D40009501843C29E09207A105B10520F484ECCB
:100D500099E0A0E0B0E08093920190939301A0937A
:100D60009401B093950180E580938F0119821A82D6
:100D70001B82CE0101960E945F000E949200FF2418
:100D8000FA9480E8E82E9FE6C92E91E0D92E20E063
:100D9000A22E20E0B22EF9821A821B82CE01019689
:100DA0000E945F000E94920064EF71E080E090E09A
:100DB0000E94B1011982EA821B82CE0101960E9433
:100DC0005F000E94920064EF71E080E090E00E947A
:100DD000B10119821A82FB82CE0101960E945F0046
:100DE0000E94920064EF71E080E090E00E94B10107
:100DF00019821A821B82CE0101960E945F0007E5CC
:100E000011E0F801F082F182F2820E94920068E71C
:100E100070E080E090E00E94B101F8011082118240
:100E200012820D5F1F4FC016D10659F7A114B104ED
:100E300009F4B1CF0E940000AECFEFE8F1E08FEFF0
:100E4000808312821182148613868FEF9FEFDC015C
:100E500087839087A187B2871382148215821682B6
:100E6000089597FB072E16F4009407D077FD09D05C
:100E70000E94880707FC05D03EF4909581959F4F0E
:100E80000895709561957F4F0895A1E21A2EAA1BCF
:100E9000BB1BFD010DC0AA1FBB1FEE1FFF1FA2172A
:100EA000B307E407F50720F0A21BB30BE40BF50B27
:100EB000661F771F881F991F1A9469F760957095B0
:100EC000809590959B01AC01BD01CF010895A29F33
:100ED000B001B39FC001A39F700D811D1124911D0E
:100EE000B29F700D811D1124911D08950E94670706
:100EF000B7FF0895821B930B08950E946707A59F73
:100F0000900DB49F900DA49F800D911D1124089504
:100F1000AA1BBB1B51E107C0AA1FBB1FA617B7071F
:100F200010F0A61BB70B881F991F5A95A9F780953B
:100F30009095BC01CD010895EE0FFF1F0590F4912F
:100F4000E02D099481E090E0F8940C94A707F894C0
:100F5000FFCF000000009C059C059C05980537020A
:100F6000940591058E05000000003905D304D104D5
:0C0F70009805370294059105E301770213
:107E0000112484B714BE81FFF0D085E080938100F7
:107E100082E08093C00088E18093C10086E0809377
:107E2000C20080E18093C4008EE0C9D0259A86E02C
:107E300020E33CEF91E0309385002093840096BBD3
:107E4000B09BFECF1D9AA8958150A9F7CC24DD24C4
:107E500088248394B5E0AB2EA1E19A2EF3E0BF2EE7
:107E6000A2D0813461F49FD0082FAFD0023811F036
:107E7000013811F484E001C083E08DD089C08234E0
:107E800011F484E103C0853419F485E0A6D080C0E4
:107E9000853579F488D0E82EFF2485D0082F10E0AE
:107EA000102F00270E291F29000F111F8ED06801E7
:107EB0006FC0863521F484E090D080E0DECF843638
:107EC00009F040C070D06FD0082F6DD080E0C81688
:107ED00080E7D80618F4F601B7BEE895C0E0D1E017
:107EE00062D089930C17E1F7F0E0CF16F0E7DF06D8
:107EF00018F0F601B7BEE89568D007B600FCFDCFD4
:107F0000A601A0E0B1E02C9130E011968C91119780
:107F100090E0982F8827822B932B1296FA010C0160
:107F200087BEE89511244E5F5F4FF1E0A038BF0790
:107F300051F7F601A7BEE89507B600FCFDCF97BE46
:107F4000E89526C08437B1F42ED02DD0F82E2BD052
:107F50003CD0F601EF2C8F010F5F1F4F84911BD097
:107F6000EA94F801C1F70894C11CD11CFA94CF0C13
:107F7000D11C0EC0853739F428D08EE10CD085E9AC
:107F80000AD08FE07ACF813511F488E018D01DD067
:107F900080E101D065CF982F8091C00085FFFCCF94
:107FA0009093C60008958091C00087FFFCCF809118
:107FB000C00084FD01C0A8958091C6000895E0E648
:107FC000F0E098E1908380830895EDDF803219F02E
:107FD00088E0F5DFFFCF84E1DECF1F93182FE3DFCA
:107FE0001150E9F7F2DF1F91089580E0E8DFEE27F6
:047FF000FF270994CA
:027FFE00040479
:00000001FF
