:100000000C945E000C9486000C9486000C94860080
:100010000C9486000C9486000C9486000C94860048
:100020000C9486000C9486000C9486000C94860038
:100030000C9486000C9486000C9486000C94860028
:100040000C94E20C0C9486000C94520D0C942C0D24
:100050000C9486000C9486000C9486000C94860008
:100060000C94840D0C9486000000000024002700EE
:100070002A0000000000250028002B0004040404CE
:100080000404040402020202020203030303030342
:10009000010204081020408001020408102001021F
:1000A00004081020000000080002010000030407FB
:1000B0000000000000000000A30E4E1111241FBE1E
:1000C000CFEFD8E0DEBFCDBF11E0A0E0B1E0E8E6C1
:1000D000FEE202C005900D92AC38B107D9F723E0DB
:1000E000ACE8B1E001C01D92AA32B207E1F710E01E
:1000F000CDE5D0E004C02197FE010E94DE15CC358D
:10010000D107C9F70E940E0F0C9427170C9400001A
:100110000895089590E0FC01EC55FF4F2491FC01F7
:10012000E057FF4F3491FC01E458FF4FE491EE2378
:10013000C9F0222339F0233001F1A8F4213019F15C
:10014000223029F1F0E0EE0FFF1FEE58FF4FA5918E
:10015000B4918FB7F894EC91611126C030953E238D
:100160003C938FBF08952730A9F02830C9F0243080
:1001700049F7809180008F7D03C0809180008F7748
:1001800080938000DFCF84B58F7784BDDBCF84B5CB
:100190008F7DFBCF8091B0008F778093B000D2CF5E
:1001A0008091B0008F7DF9CF3E2BDACFCF93DF93D4
:1001B00090E0FC01E057FF4F249184589F4FFC01D1
:1001C00084918823D1F090E0880F991FFC01E859B1
:1001D000FF4FA591B491FC01EE58FF4FC591D4910A
:1001E00061110EC09FB7F8948C91E22FE0958E2399
:1001F0008C932881E223E8839FBFDF91CF910895FC
:100200008FB7F894EC91E22BEC938FBFF6CF82304E
:10021000910538F0880F991F880F991F059701974E
:10022000F1F708953FB7F8948091D6019091D701E6
:10023000A091D801B091D90126B5A89B05C02F3F48
:1002400019F00196A11DB11D3FBFBA2FA92F982FFC
:100250008827BC01CD01620F711D811D911D42E0F7
:10026000660F771F881F991F4A95D1F708958F92BF
:100270009F92AF92BF92CF92DF92EF92FF924B018B
:100280005C010E9412016B017C010E9412016C1939
:100290007D098E099F09683E734081059105A8F389
:1002A00021E0821A9108A108B10888EEC80E83E007
:1002B000D81EE11CF11C81149104A104B10429F79A
:1002C000FF90EF90DF90CF90BF90AF909F908F9076
:1002D0000895AF92BF92CF92DF92EF92FF920F9369
:1002E0001F93CF93DF936C017B018B01040F151FCC
:1002F000EB015E01AE18BF08C017D10759F0699134
:10030000D601ED91FC910190F081E02DC601099597
:10031000892B79F7C501DF91CF911F910F91FF9044
:10032000EF90DF90CF90BF90AF900895FC01538D78
:10033000448D252F30E0842F90E0821B930B5417BF
:1003400010F0CF96089501970895FC01918D828D4C
:10035000981761F0A28DAE0FBF2FB11D5D968C91E5
:10036000928D9F5F9F73928F90E008958FEF9FEF24
:100370000895FC01918D828D981731F0828DE80FE0
:10038000F11D858D90E008958FEF9FEF0895FC019A
:10039000918D228D892F90E0805C9F4F821B910967
:1003A0008F739927089580E592E00E94C70121E0AC
:1003B000892B09F420E0822F089580E090E0892BBA
:1003C00029F00E94D30181110C9400000895FC01D2
:1003D000A48DA80FB92FB11DA35ABF4F2C91848DA6
:1003E00090E001968F739927848FA689B7892C9303
:1003F000A089B1898C91837080648C93938D848D56
:10040000981306C00288F389E02D80818F7D808358
:100410000895EF92FF920F931F93CF93DF93EC0118
:1004200081E0888F9B8D8C8D98131AC0E889F9899B
:10043000808185FF15C09FB7F894EE89FF8960839E
:10044000E889F98980818370806480839FBF81E01F
:1004500090E0DF91CF911F910F91FF90EF90089561
:10046000F62E0B8D10E00F5F1F4F0F731127E02E3C
:100470008C8D8E110CC00FB607FCFACFE889F98974
:10048000808185FFF5CFCE010E94E701F1CFEB8D92
:10049000EC0FFD2FF11DE35AFF4FF0829FB7F89448
:1004A0000B8FEA89FB8980818062CFCFCF93DF9366
:1004B000EC01888D8823B9F0AA89BB89E889F9897C
:1004C0008C9185FD03C0808186FD0DC00FB607FCB1
:1004D000F7CF8C9185FFF2CF808185FFEDCFCE01E4
:1004E0000E94E701E9CFDF91CF910895FC01838558
:1004F0008F3F19F061E00C948A000895FC0180811F
:100500009181892B39F0A281B3819C9111968C91B4
:100510009CBD8DBD83858F3F19F060E00C948A00EF
:100520000895BF92CF92DF92EF92FF920F931F93A5
:10053000CF93DF93EC0188819981892B81F06EBD87
:100540000DB407FEFDCF0EB5802FDF91CF911F9127
:100550000F91FF90EF90DF90CF90BF900895888526
:10056000998511E0892B09F010E8BB24B394862FFC
:10057000812309F0B12CF62E2C813D814E815F81C3
:1005800060E271EA87E090E00E942614E22E00E02B
:10059000C22ED12CEE2019F0C6010E9407018A85D7
:1005A000982F977F09F044C08D858F3F89F09F2D4C
:1005B000912381E009F480E08B1551F0EF85F889F3
:1005C0008F89992379F19081892B8083BB24B394FF
:1005D000E989FA898081998D892B8083EE2019F031
:1005E000C6010E9407018E858F3F39F0EB89FC8997
:1005F0008081988D892309F0012BE989FA899081FE
:10060000898D80958923808388859985892B09F038
:1006100067C0110F1111BECF8E858F3F09F094CFA7
:100620000F2D92CF9081809589238083B12CD0CFDC
:100630008C3099F58D858F3F49F0EF85F8898F894A
:100640009F2D912331F19081892B8083E989FA894B
:100650009081898D809589238083EE2019F0C601D1
:100660000E940701E989FA898081998D892B80830D
:10067000EE2019F0C6010E9407018E858F3F21F2FE
:10068000EB89FC898081988D892309F4BDCF012BEA
:10069000BBCF908180958923D8CFE989FA89808161
:1006A000998D892B8083EE2019F0C6010E940701E5
:1006B0008D858F3F49F0EF85F8898F899F2D912394
:1006C00059F09081892B8083E989FA899081898DFD
:1006D000809589238083D1CF908180958923F3CF22
:1006E000169598CFCF92DF92EF92FF920F931F93C0
:1006F000CF93DF938C01EB016A0179010E947E02A6
:100700006881C8010E949102E601EC0CFD1C6FEFAC
:10071000C8010E9491028993CE15DF05C1F7C80177
:100720000E94760281E0DF91CF911F910F91FF909F
:10073000EF90DF90CF900895089508952091AD0136
:10074000260F3327331F21323105ECF42091260286
:10075000FC0190E080E0243069F082E00895A091EF
:10076000AD012191AC0143575E4FA40FB52FB11DD0
:100770002C930196861798F38091AD01680F6093D2
:10078000AD0180E0089581E008951092260281E095
:10079000809325021092000261E082E10E948A00AB
:1007A00061E083E10E948A00E9EBF0E080818E7FC6
:1007B000808380818D7F808388E48093B80085E486
:1007C0008093BC0008951092DF011092DE01109218
:1007D0002D0210924F020E94C50388E890E090938A
:1007E000DD018093DC0189E890E09093DB01809348
:1007F000DA010895CF93DF9391E090938C018823E1
:10080000B9F0C091B800D091BA008091BC008A7B49
:100810008093BC0060E082E10E948A0060E083E196
:100820000E948A000E94C503D093BA00C093B8000A
:10083000DF91CF9108958F929F92AF92BF92CF9206
:10084000DF92EF92FF920F931F93CF93DF93D0919C
:100850004F02D13208F0D7C0182FC0914E020E942B
:1008600012016B017C018091260281116BC082E034
:1008700080932602109325028FEF8093240210921A
:100880002302D0932202AEE2B2E0E2E0F2E080E0A6
:10089000D81391C01092010280910102CC0FC82B95
:1008A000C093010280910002813009F088C010924B
:1008B00000020E9412016B017C0180910102809371
:1008C000BB008091280290912902A0912A02B09148
:1008D0002B02892B8A2B8B2BA1F00E9412010091F5
:1008E00028021091290220912A0230912B026C19C2
:1008F0007D098E099F09061717072807390708F48D
:1009000042C08091BC0083FDD8CF85EC8093BC00B1
:100910000E9412016B017C0180912602823009F451
:1009200050C0809124028F3F09F46FC0809124024F
:10093000803209F46CC080912402803309F469C0CC
:1009400084E026C08091280290912902A0912A0279
:10095000B0912B02892B8A2B8B2B09F484CF0E9418
:1009600012018090280290902902A0902A02B09053
:100970002B026C197D098E099F0986169706A80619
:10098000B90608F070CF809127020E94FA0385E033
:1009900010922D0210924F0210922C02DF91CF91F3
:1009A0001F910F91FF90EF90DF90CF90BF90AF908D
:1009B0009F908F9008959D9191938F5F69CF85EE61
:1009C000A5CF8091280290912902A0912A02B0918E
:1009D0002B02892B8A2B8B2B09F49ECF0E941201AC
:1009E000009128021091290220912A0230912B02B5
:1009F0006C197D098E099F09061717072807390703
:100A000008F08ACFC0CF81E0C3CF80E0C1CF82E0C1
:100A1000BFCF83E0BDCF1F93CF93DF93EA01122FA7
:100A2000DC0111968D919C91DC01ED91FC9102808D
:100A3000F381E02D0995C817D90729F4812F0E9469
:100A40001B0491E0811190E0892FDF91CF911F91DC
:100A50000895CF93DF93EC018B818823A1F08881E7
:100A600091E090932C0280934E0210922D021092EE
:100A70004F0281E00E941B0491E0811190E0892FD8
:100A8000DF91CF9108950E94E30381E08B83CE0133
:100A90000E942905982F8111E2CFF1CF0895E091AE
:100AA000DF018091DE01E81730F4F0E0E052FE4F04
:100AB000808190E008958FEF9FEF08959091DF017E
:100AC0008091DE012FEF3FEF981748F4E92FF0E017
:100AD000E052FE4F208130E09F5F9093DF01C9011B
:100AE00008958091DE019091DF01891B990B089593
:100AF000CF92DF92EF92FF920F931F93CF93DF93EA
:100B00007C01CB018A0120912C02222389F0EB0188
:100B10006B01C40ED51ECC15DD0569F06991D701B6
:100B2000ED91FC910190F081E02DC7010995F3CF83
:100B3000642F0E949E03C801DF91CF911F910F91F6
:100B4000FF90EF90DF90CF900895CF93DF931F92A7
:100B5000CDB7DEB7698320912C022223F9F02091D2
:100B60004F02203258F021E030E0FC013383228331
:100B700090E080E00F90DF91CF91089580912D0259
:100B8000E82FF0E0E25DFD4F998190838F5F8093C5
:100B90002D0280934F0281E090E0ECCF61E0CE0126
:100BA00001960E949E03F7CF90E080E00895FC013B
:100BB00001900020E9F73197AF01481B590BBC01A8
:100BC00080E592E00C9469018F929F92AF92BF9260
:100BD0000F931F93CF93DF93CDB7DEB7A1970FB6D7
:100BE000F894DEBF0FBECDBF19A2423008F44AE030
:100BF0008E010F5D1F4F842E912CB12CA12CA501CD
:100C000094010E942614E62FB901CA01EA30F4F4D7
:100C1000E05DD801EE938D01232B242B252B79F752
:100C200090E080E0109719F0CD010E94D705A196C1
:100C30000FB6F894DEBF0FBECDBFDF91CF911F91ED
:100C40000F91BF90AF909F908F900895E95CE1CF96
:100C50000F931F93CF93DF9300D0CDB7DEB76A8396
:100C6000E091FB02F091FC023097F9F089838481D6
:100C70009581029798F0808191E090932C02809367
:100C80004E0210922D0210924F0221E042E050E0FD
:100C9000BE016F5F7F4FCF010E940B050F900F9039
:100CA000DF91CF911F910F9108958F7789830091E4
:100CB000FD021091FE02C8010E947E026981C801F6
:100CC0000E9491026A81C8010E949102C8010E949B
:100CD0007602E4CF2F923F924F925F926F927F9273
:100CE0008F929F92AF92BF92CF92DF92EF92FF923C
:100CF0000F931F93CF93DF93DC011496ED91FC913A
:100D00001597EF2B09F425C169012A01EC018881AF
:100D100091E090932C0280934E0210922D0210923B
:100D20004F0220E041E050E0CD010E940B05782EFB
:100D3000882309F40EC1F12CE12C332433948C81E7
:100D40009D8186010E191F098017910708F48C01F7
:100D500028800E9412014B015C01809126028111C2
:100D600073C0602EB0E2B01710F480E2682E3092AB
:100D7000260221E0C601801B910BE816F90608F453
:100D800020E020932502EFEFE0932402109223024B
:100D90008FEF860D80932202309201028091010232
:100DA000220C282A2092010280910002813009F051
:100DB00090C0109200020E9412014B015C018091D0
:100DC00001028093BB008091280290912902A0919A
:100DD0002A02B0912B02892B8A2B8B2BA1F00E9427
:100DE0001201209128023091290240912A0250914B
:100DF0002B02681979098A099B09261737074807C2
:100E0000590708F442C08091BC0083FDD8CFF5ECAF
:100E1000F093BC000E9412014B015C0180912602FC
:100E2000813009F45AC080912302861510F4609035
:100E30002302A2E0B2E0E0EEF1E080E0861551F19D
:100E40009D9191938F5FFACF809128029091290212
:100E5000A0912A02B0912B02892B8A2B8B2B09F4AB
:100E60007CCF0E94120120912802309129024091EA
:100E70002A0250912B02681979098A099B092617C1
:100E800037074807590708F068CF809127020E946A
:100E9000FA03612C1092DF016092DE0160161106E8
:100EA00009F057C042018E0C9F1C5401C5018819DE
:100EB00099098017910798F589819A81DC01ED9154
:100EC000FC910284F385E02D0995F50181935F0182
:100ED000EDCF85EE8093BC009DCF8091280290914C
:100EE0002902A0912A02B0912B02892B8A2B8B2BED
:100EF00009F494CF0E941201209128023091290216
:100F000040912A0250912B02681979098A099B099C
:100F1000261737074807590708F080CFB6CFE00EED
:100F2000F11EEC14FD0408F40ACF872DDF91CF9158
:100F30001F910F91FF90EF90DF90CF90BF90AF90F7
:100F40009F908F907F906F905F904F903F902F90E9
:100F50000895712CEACFCF93DF9300D0CDB7DEB7E1
:100F6000E091FB02F091FC02898322E030E0AE01C7
:100F70004F5F5F4FBA01309751F0CF010E946A0670
:100F800089819A810F900F90DF91CF910895809180
:100F9000FD029091FE020E947203F2CFCF93DF9385
:100FA00000D01F92CDB7DEB7FC01828193816983A7
:100FB00023E030E0AE014F5F5F4FBA010097A1F030
:100FC0000E946A0629816A8170E090E080E0982F93
:100FD000872F762F6627822B2B81622B0F900F9005
:100FE0000F90DF91CF910895848195810E947203C3
:100FF000E9CF8F929F92AF92BF92CF92DF92EF9202
:10100000FF920F931F93CF93DF93EC016AEF0E943F
:10101000CE070B891C8930E020E0C72ED82EE92EA0
:10102000FF24E7FCFA94C01AD10AE20AF30A57E057
:1010300095958795779567955A95D1F7000F111F6C
:10104000221F331F4B015C01801A910AA20AB30AC6
:10105000A5019401AD89BE890E9453144B015C0126
:10106000FBE0B594A79497948794FA95D1F7A701DC
:101070009601C701B6010E9416149B01AC01ACE0B9
:101080005595479537952795AA95D1F7AF89B88D8E
:101090000E9453149B01AC01BEE0559547953795CE
:1010A0002795BA95D1F7280D391D4A1D5B1D2F874D
:1010B000388B498B5A8BA5E0B0E00E9448146058E9
:1010C0007F4F8F4F9F4F672F782F892F992787FD4D
:1010D0009A950E94A11220E030E048EC52E40E9470
:1010E000F811DF91CF911F910F91FF90EF90DF905A
:1010F000CF90BF90AF909F908F9008952F923F9286
:101100004F925F926F927F928F929F92AF92BF9217
:10111000CF92DF92EF92FF920F931F93CF93DF93C3
:10112000CDB7DEB76D970FB6F894DEBF0FBECDBF5B
:101130009D8F8C8FFC0183859485A585B685892B31
:101140008A2B8B2B19F0CF010E94F90767EF8C8D4A
:101150009D8D0E94CE07688F798F8A8F9B8FEC8D33
:10116000FD8D87859089A189B2896C017D01FF0C75
:10117000CC08DC2C76019C01AD016C2D7C2D8C2DD6
:101180009C2D345F41405109610971098109910920
:1011900029873A874B875C873B014C0159016A01DB
:1011A0007B018C010E945B14322E232E4A8B5B8BB9
:1011B0006C8B7D8B8E8B9F8BAC8DBD8D5C963C91AB
:1011C0005C975B962C91932F990F990B492F592F70
:1011D000692F792F892F0E945B140CE00E948A15D9
:1011E000522E39834D875E876F87788B898B492E86
:1011F000EC8DFD8D368D258D932F990F990BA32C9A
:10120000B22CCA88DB88EC88FD880E891F89492F9B
:10121000592F692F792F892F0E945B1408E00E94B3
:10122000A315A52CB980CD84DE84EF84F8880989C4
:10123000142D0E94C01570588F4F9F4FAC8DBD8DDF
:101240005996ED91FC915F01D12CC12CE12CF12C30
:101250008701E983BA82CB82DC82ED82FE820F8332
:101260001887C12CD12CE12CF12C00E010E00E9459
:101270005B1401E20E94A3152983532E4D875E87DC
:101280006F87788B898B492EA0E00E94D21509F4D4
:101290003DC1AC8DBD8D94963C91949793962C91C5
:1012A000932F990F990BA32CB22CCA88DB88EC885A
:1012B000FD880E891F89492F592F692F792F892F72
:1012C0000E945B1419014A8B5B8B6C8B7D8B8E8B20
:1012D0009F8BEC8DFD8D32A121A1932F990F990B3E
:1012E000A984BA84CB84DC8473018401492F592FEB
:1012F000692F792F892F0E945B1401E10E948A15C2
:101300005101CA88DB88EC88FD880E891F890E94FC
:10131000C01559016A017B01282E192F488D598D5E
:101320006A8D7B8D84E075956795579547958A956D
:10133000D1F780E090E0A0E1B0E0841B950BA60B14
:10134000B70B3C014D01990C6608762C43019C01BA
:10135000AD01662D762D862D962D0FE10E948A1502
:10136000722E832E942E652EB62FA72F382E998796
:10137000EC8DFD8D30A1278D932F990F990B492F5F
:10138000592F692F792F892F03E20E948A15022D88
:101390000E94C01559016A017B018C01272D382D4F
:1013A000492D562D6B2F7A2F832D99850E94C915B3
:1013B000E5E3AE2EFCE0BF2EC12CD12CE12CF12CAC
:1013C00000E010E00E945B14A980B52CCD84DE847F
:1013D000EF84F8880989142D0E94B51429873A876B
:1013E0004B875C8769837D878E879F870DE00E948E
:1013F000A315922E832E742E652E562E472E382E30
:10140000292EAC8DBD8D9A963C919A9799962C91E8
:10141000932F990F990BA92CB82CC72CD62CE52CFF
:10142000F42C032D122D492F592F692F792F892F35
:101430000E945B140E945B1409E10E94A315A98419
:10144000BA84CB84DC84E980FD840E851F850E94EC
:10145000C01519012A013B014C01EC8DFD8D30A511
:1014600027A1932F990F990B492F592F692F792F66
:10147000892F0E945B1403E10E94A31559016A01A0
:101480007B018C019101A201B301C4010E94C0152E
:1014900008E00E94A31559016A017B01E82F192F6A
:1014A000AC8DBD8D96963C91969795962C91932FE9
:1014B000990F990B492F592F692F792F892F04E004
:1014C0000E948A150E2F0E94C0150E94991220E0DA
:1014D00030E040E85BE30E94A4136D960FB6F894E9
:1014E000DEBF0FBECDBFDF91CF911F910F91FF9057
:1014F000EF90DF90CF90BF90AF909F908F907F90B4
:101500006F905F904F903F902F90089560E070E053
:10151000CB01E3CF4F925F926F927F928F929F9217
:10152000AF92BF92CF92DF92EF92FF920F931F93F1
:10153000CF936B017C01742EAC019B010E941114AE
:10154000882399F086E491E0CF911F910F91FF904D
:10155000EF90DF90CF90BF90AF909F908F907F9053
:101560006F905F904F900C94D70546015701E89417
:10157000B7F82FEF3FEF4FE75FE7C501B4010E94D7
:10158000111481110DC02FEF3FEF4FE75FE7C50149
:10159000B4010E94F31118161CF48AE491E0D4CF30
:1015A0002FEF3FEF4FE75FE4C701B6010E949F13A3
:1015B00018161CF48EE491E0C7CF2FEF3FEF4FE7F2
:1015C0005FECC701B6010E94F31187FDF3CF20E065
:1015D00030E0A901C701B6010E94F31110E000E05C
:1015E00087FF0AC06DE280E592E00E9409028C014B
:1015F000F7FAF094F7F8F094C0E060E070E080E073
:101600009FE37C1641F020E030E040E251E40E948C
:10161000F811CF5FF6CFA70196010E9487112B0129
:101620003C010E946A124B015C014AE00E94E40501
:101630007C01E00EF11ECC23C1F1C501B4010E9472
:101640009F129B01AC01C301B2010E9486114B01A4
:101650005C016EE280E592E00E940902E80EF91E4C
:10166000C15018F120E030E040E251E4C501B4017E
:101670000E94A4132B013C010E946A124B01B12C61
:10168000A12C4AE0C501B4010E94E405E80EF91E50
:10169000C501B4010E949F129B01AC01C301B201BC
:1016A0000E9486114B015C01DBCFC701CF911F91D6
:1016B0000F91FF90EF90DF90CF90BF90AF909F90F1
:1016C0008F907F906F905F904F9008950C948F163D
:1016D0000C948F16CF93DF93EB01FB01349620E23D
:1016E000DF011D922A95E9F744E250E060E070E0E6
:1016F000488359836A837B83FC0142815381052E91
:10170000000C660B770B4C835D836E837F8346E012
:1017100050E060E070E0488759876A877B872FB781
:10172000F8944091D2015091D3016091D40170910D
:10173000D5012FBF488B598B6A8B7B8B8481958118
:10174000FC014385548565857685452B462B472BC3
:1017500081F00E947E0820E030E048EC52E40E94D4
:10176000F8116C8B7D8B8E8B9F8B81E0DF91CF91FD
:10177000089560E070E080EC9FE7EDCFCF93DF93BA
:10178000EB01FB01349620E2DF011D922A95E9F777
:1017900044E250E060E070E0488359836A837B83D1
:1017A000FC0142815381052E000C660B770B4C83A4
:1017B0005D836E837F834DE050E060E070E048879A
:1017C00059876A877B872FB7F8944091D20150914F
:1017D000D3016091D4017091D5012FBF488B598BF3
:1017E0006A8B7B8B84819581FC014385548565855B
:1017F0007685452B462B472B51F00E94F9076C8BC1
:101800007D8B8E8B9F8B81E0DF91CF91089560E07F
:1018100070E080EC9FE7F3CF0F931F93CF93DF939C
:101820008C01EB0188E2FB0111928A95E9F74BE00C
:1018300050E062E571E0CE010E9418171B8681E03E
:1018400090E0A0E0B0E08C879D87AE87BF87F8016D
:1018500082819381092E000CAA0BBB0B888B998B7C
:10186000AA8BBB8B86E090E0A0E0B0E08C8B9D8BD8
:10187000AE8BBF8B1CA21DA21EA21FA280E090E017
:10188000A6E9B3E48C8F9D8FAE8FBF8F80E090E888
:10189000A9E8B4E4888F998FAA8FBB8F86EA9BE969
:1018A000A4E4BCE388A399A3AAA3BBA3DF91CF912F
:1018B0001F910F9108950F931F93CF93DF938C0186
:1018C000EB0188E2FB0111928A95E9F74BE050E0C9
:1018D00062E571E0CE010E9418171B8681E090E05E
:1018E000A0E0B0E08C879D87AE87BF87F80182813A
:1018F0009381092E000CAA0BBB0B888B998BAA8BAA
:10190000BB8B8DE090E0A0E0B0E08C8B9D8BAE8B2C
:10191000BF8B1CA21DA21EA21FA280E090E0A0E22D
:10192000B2EC8C8F9D8FAE8FBF8F80E090E0AAEAE3
:10193000B2E4888F998FAA8FBB8F8AE097EDA3E2DC
:10194000BCE388A399A3AAA3BBA3DF91CF911F9166
:101950000F91089585ED8093BC00809128029091AD
:101960002902A0912A02B0912B020796A11DB11D58
:1019700023E0B695A795979587952A95D1F720915D
:10198000BC0024FD03C01092260208954091280255
:101990005091290260912A0270912B02452B462B0F
:1019A000472B69F30097A105B10541F02AE22A957A
:1019B000F1F700C00197A109B109E1CF8091270299
:1019C0000C94FA031F920F920FB60F9211242F93CB
:1019D0003F938F939F93AF93BF938091D201909148
:1019E000D301A091D401B091D5013091D10123E070
:1019F000230F2D3758F50196A11DB11D2093D1015C
:101A00008093D2019093D301A093D401B093D501D8
:101A10008091D6019091D701A091D801B091D901C0
:101A20000196A11DB11D8093D6019093D701A0937B
:101A3000D801B093D901BF91AF919F918F913F9100
:101A40002F910F900FBE0F901F90189526E8230F2F
:101A50000296A11DB11DD2CF1F920F920FB60F9209
:101A600011242F933F934F935F936F937F938F93A3
:101A70009F93AF93BF93EF93FF9380E592E00E9413
:101A8000E701FF91EF91BF91AF919F918F917F916E
:101A90006F915F914F913F912F910F900FBE0F90DB
:101AA0001F9018951F920F920FB60F9211242F932B
:101AB0008F939F93EF93FF93E0916002F091610207
:101AC0008081E0916602F091670282FD1BC09081E7
:101AD000809169028F5F8F7320916A02821741F0B3
:101AE000E0916902F0E0E05BFD4F958F8093690221
:101AF000FF91EF919F918F912F910F900FBE0F90BB
:101B00001F9018958081F4CF1F920F920FB60F92FD
:101B100011242F933F934F935F936F937F938F93F2
:101B20009F93AF93BF93EF93FF938091B900887F0A
:101B3000803609F44AC0F0F5883209F4A7C018F5D8
:101B4000803109F49BC0B8F4882309F4F9C08830C7
:101B500009F494C0FF91EF91BF91AF919F918F9144
:101B60007F916F915F914F913F912F910F900FBE99
:101B70000F901F901895883109F488C0803251F772
:101B80008093240214C0803409F49DC040F4803353
:101B9000B9F38833F9F68093240285ECB0C0803520
:101BA00009F485C0883509F496C0883499F60E94F6
:101BB000AA0CD0CF883909F48CC038F5883729F0C1
:101BC00050F4883611F0803729F683E0809326029E
:101BD0001092CF0157C0883809F47BC0803919F0C2
:101BE000803809F0B7CF8091CF01803208F071C002
:101BF000E091CF0181E08E0F8093CF018091BB00F7
:101C0000F0E0E155FE4F80833DC0803B39F0E0F4C9
:101C1000803A09F479C0883A09F09CCF84E0809337
:101C200026021092AE011092AD01E091DC01F0911C
:101C3000DD0109958091AD0181110FC081E0809394
:101C4000AD0110928D0109C0803C09F4A6CF883CFB
:101C500009F4A3CF883B09F07DCFE091AE0181E08C
:101C60008E0F8093AE01F0E0E357FE4F80818093AA
:101C7000BB009091AE018091AD0129C0809101021D
:101C80008093BB0085EC8093BC0064CF90912302CD
:101C900080912202981758F5E091230281E08E0F7F
:101CA00080932302F0E0EE5FFD4F8081E9CFE09169
:101CB000230281E08E0F809323028091BB00F0E02D
:101CC000EE5FFD4F8083909123028091220298174E
:101CD000C8F285E8D8CFE091230281E08E0F80938F
:101CE00023028091BB00F0E0EE5FFD4F8083809186
:101CF000250281115CCF81E08093000284EA809309
:101D0000BC001092260226CF85EC8093BC00109276
:101D100026028091CF01803230F4E091CF01F0E0D3
:101D2000E155FE4F10826091CF0170E0E091DA0141
:101D3000F091DB018FEA91E009951092CF010ACF73
:101D40001092240234CFCF93DF93E0E5F2E01382C8
:101D5000128288EE93E0A0E0B0E084839583A683AE
:101D6000B7832AE031E03183208325EC30E03587EA
:101D7000248724EC30E03787268720EC30E0318B55
:101D8000208B21EC30E0338B228B22EC30E0358B42
:101D9000248B26EC30E0378B268B118E128E138E1F
:101DA000148EEDEEF2E01382128284839583A68373
:101DB000B7838CE191E091838083C9EFD2E01B82ED
:101DC0001A821D821C821B861C861D861E861BA6EF
:101DD0001CA6F983E88386E090E00E94F315FC01DD
:101DE0008CE391E09183808388E191E09383828307
:101DF000D583C483FF83EE8386E090E00E94F315D1
:101E0000FC018EE291E09183808313821282D5835C
:101E1000C483F987E887DF91CF910895CF93DF934B
:101E20001F92CDB7DEB7789484B5826084BD84B547
:101E3000816084BD85B5826085BD85B5816085BDC5
:101E400080916E00816080936E001092810080917D
:101E50008100826080938100809181008160809305
:101E60008100809180008160809380008091B1002A
:101E700084608093B1008091B00081608093B00055
:101E800080917A00846080937A0080917A008260E9
:101E900080937A0080917A00816080937A008091AB
:101EA0007A00806880937A001092C100E09160020D
:101EB000F091610282E08083E0915C02F0915D022A
:101EC0001082E0915E02F0915F0280E180831092C7
:101ED0006802E0916402F091650286E08083E091FF
:101EE0006202F0916302808180618083E0916202EE
:101EF000F0916302808188608083E0916202F091BA
:101F00006302808180688083E0916202F0916302C5
:101F100080818F7D80830E94E3030091FD021091F8
:101F2000FE020115110591F58091FB029091FC02D2
:101F3000009711F00E948F1686E090E00E94F31542
:101F40008C018091F9029091FA0226E7F801208332
:101F500092838183138280E290E09583848310933F
:101F6000FC020093FB020E94E30381E0F8018383FB
:101F7000C8010E942905811151C086E691E00E94A6
:101F8000D70583E691E00E94D705FFCFF80183854E
:101F90008F3F41F061E00E94D60061E0F801838547
:101FA0000E948A00F80180819181892B09F43BC14C
:101FB000FFB6F8948091D001811127C0E6E8F0E0E7
:101FC0008491EAE9F0E09491E82FF0E0EE0FFF1F32
:101FD000E859FF4FA591B491EC91E92321F461E018
:101FE0008AE00E948A0061E08AE00E94D6008CB5F7
:101FF00080618CBD8CB580648CBD61E08DE00E94F9
:10200000D60061E08BE00E94D6008091D0018F5F06
:102010008093D001FFBE81E0F801838F8091FB02A5
:102020009091FC02009709F420C120ED298321E062
:1020300030E0AE014F5F5F4FBA010E946A068981AE
:1020400090E0B0E0A0E08093040390930503A09398
:102050000603B093070388359105A105B10509F082
:102060008CCF88E80E94AB0790930D0380930C03FC
:102070008AE80E94AB0790930F0380930E038CE8CD
:102080000E94AB0790931103809310038EE80E9487
:10209000AB07909313038093120380E90E94AB0770
:1020A000909315038093140382E90E94AB079093E9
:1020B00017038093160384E90E94AB0790931903DA
:1020C0008093180386E90E94AB0790931B038093CB
:1020D0001A0388E90E94AB0790931D0380931C03A9
:1020E0008AE90E94AB0790931F0380931E038CE93B
:1020F0000E94AB0790932103809320038EE90E94F6
:10210000AB07909323038093220380910403909163
:102110000503A0910603B0910703892B8A2B8B2B13
:1021200041F18DEE8093250360912403607C6093E0
:10213000240367FB662760F985EF0E9428068091DB
:102140002503682F6770F0E26F9FB0011124282FDC
:10215000269526952695277094E0299F90011124B5
:10216000622B8295869586958370682B84EF0E94FA
:10217000280664E670E080E090E00E94370189E57F
:1021800091E00E94D70583E691E00E94D70500E028
:1021900010E08AE791E00E94D705809104039091B6
:1021A0000503A0910603B0910703892B8A2B8B2B83
:1021B00009F46AC089EF92E00E94F90742E00E94A8
:1021C0008A0A83E691E00E94D70581E891E00E94A7
:1021D000D7058091040390910503A0910603B09167
:1021E0000703892B8A2B8B2B09F453C089EF92E0CC
:1021F0000E947E0842E00E948A0A83E691E00E94E3
:10220000D70560ED77E080E090E00E94370101158E
:10221000110509F4BECF0E94D301882309F4B9CF78
:102220000E940000B6CF61E084850E94D600F801CC
:1022300082858B7F60E009F061E084850E948A00DE
:10224000F80185858F3F41F061E00E94D60061E092
:10225000F80185850E948A00F80186858F3F09F480
:10226000DACE60E00E94D600D6CE80ED898321E0F0
:1022700030E0AE014F5F5F4FBA018091FD02909157
:10228000FE020E947203DBCE60E070E080EC9FE70C
:1022900095CF60E070E080EC9FE7ACCFCF93DF9309
:1022A000C091FD02D091FE02209749F08A819B8166
:1022B000009711F00E948F16CE010E948F16809118
:1022C000FB029091FC02009711F00E948F16809102
:1022D000FF0290910003009739F0DC01ED91FC9131
:1022E0000280F381E02D0995809101039091020312
:1022F000009749F0DC01ED91FC910280F381E02D23
:10230000DF91CF910994DF91CF9108955058BB2769
:10231000AA270E949E110C9465130E94571338F04F
:102320000E945E1320F039F49F3F19F426F40C94B8
:1023300044130EF4E095E7FB0C943E13E92F0E9442
:10234000761358F3BA17620773078407950720F0CE
:1023500079F4A6F50C9498130EF4E0950B2EBA2F91
:10236000A02D0B01B90190010C01CA01A00111249B
:10237000FF27591B99F0593F50F4503E68F11A1647
:10238000F040A22F232F342F4427585FF3CF4695D8
:1023900037952795A795F0405395C9F77EF41F16FA
:1023A000BA0B620B730B840BBAF09150A1F0FF0FC4
:1023B000BB1F661F771F881FC2F70EC0BA0F621FB0
:1023C000731F841F48F4879577956795B795F795A0
:1023D0009E3F08F0B0CF9395880F08F09927EE0F35
:1023E0009795879508950E941A1308F481E008953F
:1023F0000E940C120C9465130E945E1358F00E9408
:10240000571340F029F45F3F29F00C943E1351110B
:102410000C9499130C9444130E94761368F3992337
:10242000B1F3552391F3951B550BBB27AA276217D0
:102430007307840738F09F5F5F4F220F331F441FDD
:10244000AA1FA9F335D00E2E3AF0E0E832D0915011
:102450005040E695001CCAF72BD0FE2F29D0660FFE
:10246000771F881FBB1F261737074807AB07B0E841
:1024700009F0BB0B802DBF01FF2793585F4F3AF047
:102480009E3F510578F00C943E130C9499135F3FD6
:10249000E4F3983ED4F3869577956795B795F795CD
:1024A0009F5FC9F7880F911D9695879597F90895B5
:1024B000E1E0660F771F881FBB1F62177307840751
:1024C000BA0720F0621B730B840BBA0BEE1F88F760
:1024D000E09508950E947E1388F09F5798F0B92FD9
:1024E0009927B751B0F0E1F0660F771F881F991F49
:1024F0001AF0BA95C9F714C0B13091F00E94981340
:10250000B1E008950C949813672F782F8827B85F4F
:1025100039F0B93FCCF3869577956795B395D9F7A0
:102520003EF490958095709561957F4F8F4F9F4FAA
:10253000089597FB16F40E9447130C94DD12E8945B
:1025400009C097FB3EF490958095709561957F4FFB
:102550008F4F9F4F9923A9F0F92F96E9BB279395A9
:10256000F695879577956795B795F111F8CFFAF4B9
:10257000BB0F11F460FF1BC06F5F7F4F8F4F9F4FEA
:1025800016C0882311F096E911C0772321F09EE848
:10259000872F762F05C0662371F096E8862F70E0AE
:1025A00060E02AF09A95660F771F881FDAF7880F88
:1025B0009695879597F90895E894F92F96EBFF2360
:1025C00081F0121613061406440B9395F695879521
:1025D0007795679557954040FF23B9F71BC099271A
:1025E0000895882351F49850D2F7872B762F652FC2
:1025F000542F432F322F20E0B1F312161306140686
:10260000440B88233AF09A95440F551F661F771F95
:10261000881FCAF755234AF4440F551F11F460FF71
:1026200004C06F5F7F4F8F4F9F4F880F96958795A0
:1026300097F90895990F0008550FAA0BE0E8FEEFEF
:1026400016161706E807F907C0F012161306E40776
:10265000F50798F0621B730B840B950B39F40A266F
:1026600061F0232B242B252B21F408950A2609F44D
:10267000A140A6958FEF811D811D089597F99F6751
:1026800080E870E060E008959FEF80EC08959095F9
:1026900080957095609550954095309521953F4F68
:1026A0004F4F5F4F6F4F7F4F8F4F9F4F08950024C5
:1026B0000A941616170618060906089500240A94A7
:1026C00012161306140605060895092E0394000C2D
:1026D00011F4882352F0BB0F40F4BF2B11F460FFBC
:1026E00004C06F5F7F4F8F4F9F4F089557FD9058E5
:1026F000440F551F59F05F3F71F04795880F97FBC6
:10270000991F61F09F3F79F087950895121613067F
:102710001406551FF2CF4695F1DF08C016161706AE
:102720001806991FF1CF86957105610508940895E3
:10273000E894BB2766277727CB0197F908950E9475
:102740001A1308F48FEF08950E94B7130C946513C1
:102750000E94571338F00E945E1320F0952311F069
:102760000C943E130C94441311240C9499130E945E
:10277000761370F3959FC1F3950F50E0551F629F3C
:10278000F001729FBB27F00DB11D639FAA27F00DCA
:10279000B11DAA1F649F6627B00DA11D661F829FF1
:1027A0002227B00DA11D621F739FB00DA11D621FD6
:1027B000839FA00D611D221F749F3327A00D611DF3
:1027C000231F849F600D211D822F762F6A2F1124D5
:1027D0009F5750409AF0F1F088234AF0EE0FFF1F08
:1027E000BB1F661F771F881F91505040A9F79E3F5F
:1027F000510580F00C943E130C9499135F3FE4F361
:10280000983ED4F3869577956795B795F795E795B4
:102810009F5FC1F7FE2B880F911D9695879597F9BD
:1028200008950E941A13880B990B0895DB018F936A
:102830009F930E944814BF91AF91A29F800D911D5C
:10284000A39F900DB29F900D11240895A1E21A2E1E
:10285000AA1BBB1BFD010DC0AA1FBB1FEE1FFF1F44
:10286000A217B307E407F50720F0A21BB30BE40B94
:10287000F50B661F771F881F991F1A9469F76095DB
:102880007095809590959B01AC01BD01CF01089595
:102890000E94E415A59F900DB49F900DA49F800DFC
:1028A000911D11240895B7FF0C9448140E944814F8
:1028B000821B930B0895DF93CF931F930F939A9DE1
:1028C000F02D219FF00D8B9DF00D8A9DE02DF10DD7
:1028D000039FF00D029FE00DF11D4E9DE00DF11DD7
:1028E0005E9DF00D4F9DF00D7F936F93BF92AF9261
:1028F0005F934F93D5010E94E4158B01AC01D70182
:102900000E94E415EB01E80FF91FD6010E94AA14FA
:102910002F913F91D6010E94E415C60FD71FE81FE3
:10292000F91FAF91BF910E94AA142F913F910E946D
:10293000E415C60FD71FE81FF91FD6010E94E41542
:10294000E60FF71F9801BE01CF010F911F91CF91A4
:10295000DF9108950E94E415460F571FC81FD91F25
:1029600008F431960895689401C0E894F92FF12B8A
:1029700012F00C94E714A0E0B0E0E1ECF4E10C9468
:102980005915092E059422F40E944315112392F43F
:10299000F0E80F26FFEFE094F09400951095B094C6
:1029A000C094D094A194BF0ACF0ADF0AEF0AFF0AAD
:1029B0000F0B1F0B0E94F21407FC0E944315CDB7AA
:1029C000DEB7ECE00C947515689401C0E8948F9222
:1029D0009F92CF93DF930E94F214DF91CF919F904B
:1029E0008F90089588249924F401E401B0E49F9322
:1029F000AA279A158B049C04ED05FE05CF05D00788
:102A0000A10798F4AD2FDC2FCF2FFE2FE92D982CA6
:102A1000892E982F872F762F652F542F432F322FF3
:102A20002227B85031F7BF9127C01B2EBF91BB277B
:102A3000220F331F441F551F661F771F881F991FC2
:102A4000881C991CEE1FFF1FCC1FDD1FAA1FBB1F78
:102A50008A149B04EC05FD05CE05DF05A007B10730
:102A600048F08A189B08EC09FD09CE09DF09A00B84
:102A7000B10B21601A94E1F62EF49401AF01BE016E
:102A8000CD01000C089560957095809590953095D6
:102A90004095509521953F4F4F4F5F4F6F4F7F4F60
:102AA0008F4F9F4F08952F923F924F925F926F9258
:102AB0007F928F929F92AF92BF92CF92DF92EF92CE
:102AC000FF920F931F93CF93DF93CDB7DEB7CA1B4F
:102AD000DB0B0FB6F894DEBF0FBECDBF09942A887A
:102AE000398848885F846E847D848C849B84AA8422
:102AF000B984C884DF80EE80FD800C811B81AA81AF
:102B0000B981CE0FD11D0FB6F894DEBF0FBECDBF79
:102B1000ED010895002E083090F0982F872F762F22
:102B2000652F542F432F322F22270850F4CF220F26
:102B3000331F441F551F661F771F881F991F0A9553
:102B4000B2F7002D089597FD1094002E083098F0EC
:102B50000850232F342F452F562F672F782F892F7A
:102B6000912DF4CF159497958795779567955795FF
:102B70004795379527950A95AAF71124002D0895B2
:102B80002A0D3B1D4C1D5D1D6E1D7F1D801F911F5D
:102B900008952A193B094C095D096E097F09800BCC
:102BA000910B08950024A7FD00942A1730054005D5
:102BB000500560057005800590050895EE0FFF1F14
:102BC0000590F491E02D0994A29FB001B39FC0013C
:102BD000A39F700D811D1124911DB29F700D811D49
:102BE0001124911D08950F931F93CF93DF9382308B
:102BF000910510F482E090E0E0912803F091290320
:102C000030E020E0B0E0A0E0309799F421153105E4
:102C100009F44AC0281B390B24303105D8F58A81C4
:102C20009B816115710589F1FB0193838283FE010C
:102C300011C0408151810281138148175907E0F08A
:102C40004817590799F4109761F012960C93129750
:102C500013961C933296CF01DF91CF911F910F9164
:102C600008950093280310932903F4CF211531050B
:102C700051F04217530738F0A901DB019A01BD0159
:102C8000DF01F801C1CFEF01F9CF909329038093C1
:102C90002803CDCFFE01E20FF31F819391932250C1
:102CA000310939832883D7CF209126033091270318
:102CB000232B41F42091020130910301309327032B
:102CC0002093260320910001309101012115310547
:102CD00041F42DB73EB74091040150910501241BEA
:102CE000350BE0912603F0912703E217F307A0F4D8
:102CF0002E1B3F0B2817390778F0AC014E5F5F4F52
:102D00002417350748F04E0F5F1F50932703409359
:102D10002603819391939FCFF0E0E0E09CCFCF9387
:102D2000DF930097E9F0FC01329713821282A091A1
:102D30002803B0912903ED0130E020E01097A1F4C1
:102D400020813181820F931F209126033091270328
:102D50002817390709F061C0F0932703E093260391
:102D6000DF91CF910895EA01CE17DF07E8F54A8198
:102D70005B819E0141155105B1F7E901FB83EA83AF
:102D800049915991C40FD51FEC17FD0761F480815B
:102D900091810296840F951FE9019983888382812E
:102DA00093819B838A83F0E0E0E012968D919C9161
:102DB00013970097B9F52D913C911197CD0102968B
:102DC000820F931F2091260330912703281739077C
:102DD00039F6309751F51092290310922803B093D9
:102DE0002703A0932603BCCFD383C28340815181A4
:102DF000840F951FC817D90761F44E5F5F4F888114
:102E00009981480F591F518340838A819B81938305
:102E100082832115310509F0B0CFF0932903E093A7
:102E200028039ECFFD01DC01C0CF13821282D7CFD1
:102E3000FB01DC014150504048F001900D92002010
:102E4000C9F701C01D9241505040E0F7089510E0CD
:102E5000CDE5D0E004C0FE010E94DE152196CE35FE
:082E6000D107C9F7F894FFCF78
:102E680000002A03800000000000090269019601A1
:102E78005602C701A501B90100000000A5057805A3
:102E8800D4054E0571055E054F05000000009C0342
:102E9800680B9D036A0B0C0C000000009C03660B7A
:102EA8009D03BE0B5B0C6E616E00696E66006F76EB
:102EB8006600424D5032383000424D503238302092
:102EC8004F4B000D0A00424D50323830206E6F745F
:102ED8002064657465637465640054656D703A2098
:0C2EE8000050726573737572653A20002B
:00000001FF
