:020000040000FA
:100000000C945E000C9486000C9486000C94860080
:100010000C9486000C9486000C9486000C948A0440
:100020000C9486000C9486000C9486000C94860038
:100030000C9486000C9486000C9486000C94860028
:100040000C9440040C9486000C940C050C94E6046B
:100050000C9486000C9486000C9486000C94860008
:100060000C9486000C948600000000080002010039
:100070000003040700000000000000000200000070
:1000800000250028002B0000000000240027002A83
:100090000004040404040404040202020202020331
:1000A000030303030301020408102040800102043B
:1000B00008102001020408102000610611241FBE50
:1000C000CFEFD8E0DEBFCDBF11E0A0E0B1E0EAE2C3
:1000D000FEE002C005900D92A232B107D9F721E0EF
:1000E000A2E2B1E001C01D92A93DB207E1F710E024
:1000F000CEE5D0E004C02197FE010E940D07CD356A
:10010000D107C9F70E943E050C9413070C94000018
:10011000E9EAF0E02491E5E9F0E08491882399F0A0
:1001200090E0880F991FFC01E957FF4FA591B4910A
:10013000FC01E358FF4F859194918FB7F894EC91AF
:10014000E22BEC938FBF08953FB7F894809138016C
:1001500090913901A0913A01B0913B0126B5A89B3D
:1001600005C02F3F19F00196A11DB11D3FBFBA2F49
:10017000A92F982F8827BC01CD01620F711D811D09
:10018000911D42E0660F771F881F991F4A95D1F78E
:1001900008958F929F92AF92BF92CF92DF92EF928B
:1001A000FF926B017C010E94A4004B015C01C11411
:1001B000D104E104F104B9F00E94A400681979099E
:1001C0008A099B09683E73408105910580F321E00F
:1001D000C21AD108E108F10888EE880E83E0981E63
:1001E000A11CB11CE4CFFF90EF90DF90CF90BF90A7
:1001F000AF909F908F9008959091000189130DC04A
:10020000ECE7F0E0E4919FEF90930001E13009F416
:1002100031C068F1E23009F433C090E0FC01E859E4
:10022000FF4F2491FC01EB55FF4F3491FC01EF5639
:10023000FF4FE491EE23D1F0222351F0233009F453
:100240003AC078F5213009F43CC0223009F43DC0B1
:10025000F0E0EE0FFF1FE358FF4FA591B4918FB769
:10026000F894EC9130953E233C938FBF0895109203
:100270006E00D3CF90916F009D7F90936F00CDCF94
:10028000909170009D7F9093700091E09093B000EA
:100290009091B100987F94609093B1001092B30058
:1002A000BCCF2730A9F02830C9F0243089F68091DE
:1002B00080008F7D03C0809180008F7780938000C5
:1002C000C7CF84B58F7784BDC3CF84B58F7DFBCF77
:1002D0008091B0008F778093B000BACF8091B0004A
:1002E0008F7DF9CFAF92BF92CF92DF92EF92FF92C4
:1002F0000F931F93CF93DF936C017B018B01040F4E
:10030000151FEB015E01AE18BF08C017D10759F0E9
:100310006991D601ED91FC910190F081E02DC6012B
:100320000995892B79F7C501DF91CF911F910F9125
:10033000FF90EF90DF90CF90BF90AF900895FC01B9
:10034000538D448D252F30E0842F90E0821B930B3A
:10035000541710F0CF96089501970895FC01918DE0
:10036000828D981761F0A28DAE0FBF2FB11D5D96E3
:100370008C91928D9F5F9F73928F90E008958FEF85
:100380009FEF0895FC01918D828D981731F0828D39
:10039000E80FF11D858D90E008958FEF9FEF089590
:1003A000FC01918D228D892F90E0805C9F4F821BF4
:1003B00091098F73992708958CE391E00E94D001F1
:1003C00021E0892B09F420E0822F089580E090E05D
:1003D000892B29F00E94DC0181110C940000089502
:1003E000FC01A48DA80FB92FB11DA35ABF4F2C91AA
:1003F000848D90E001968F739927848FA689B789A1
:100400002C93A089B1898C91837080648C93938D97
:10041000848D981306C00288F389E02D80818F7D3A
:1004200080830895EF92FF920F931F93CF93DF93F2
:10043000EC0181E0888F9B8D8C8D98131AC0E88920
:10044000F989808185FF15C09FB7F894EE89FF89EF
:100450006083E889F98980818370806480839FBF8D
:1004600081E090E0DF91CF911F910F91FF90EF908D
:100470000895F62E0B8D10E00F5F1F4F0F7311279D
:10048000E02E8C8D8E110CC00FB607FCFACFE889D8
:10049000F989808185FFF5CFCE010E94F001F1CF6F
:1004A000EB8DEC0FFD2FF11DE35AFF4FF0829FB74C
:1004B000F8940B8FEA89FB8980818062CFCFCF933C
:1004C000DF93EC01888D8823B9F0AA89BB89E8897C
:1004D000F9898C9185FD03C0808186FD0DC00FB622
:1004E00007FCF7CF8C9185FFF2CF808185FFEDCFA0
:1004F000CE010E94F001E9CFDF91CF9108952F92B4
:100500003F924F925F926F927F928F929F92AF92A3
:10051000BF92CF92DF92EF92FF920F931F93CF93F0
:10052000DF93CDB7DEB72E970FB6F894DEBF0FBEC0
:10053000CDBF6C019B01CA014536510514F084E61C
:1005400090E097FF02C090E080E064E170E00E94DC
:10055000DE067E876D8745E0842E912C861A970AE9
:100560008FB7F89440913401509135016091360174
:100570007091370149835A836B837C838FBFB901A4
:10058000330F880B990B6D837E838F8398878D85BE
:100590009E85092E000CAA0BBB0B89879A87AB8717
:1005A000BC8744244A94542C32010D2C000CEE08D4
:1005B000FF0804E069EA262E60E0362E092C000CC4
:1005C000AA08BB082FB7F8948091340190913501A7
:1005D000A0913601B09137012FBF29813A814B811B
:1005E0005C81821B930BA40BB50B4D815E816F81E7
:1005F000788584179507A607B70708F019C16D8598
:100600007E85672B09F4FCC080910001843071F471
:10061000ECE7F0E0149117FDEDC00E948800112373
:1006200009F435C0123009F067C0B2C08F3F09F03D
:10063000E1C000930001ECE7F0E014911F3F09F4E2
:10064000D9C0113009F439C040F0123009F47DC02E
:1006500017FDD0C00E948800E5CF14BC15BC84B53E
:10066000826084BD85B5816085BDE5E9F0E0849157
:10067000E82FF0E0EE0FFF1FE358FF4F85919491B4
:10068000F1018491809323010E94880010E068E4C6
:1006900078EE81E090E0A70196010E948E06BA01F3
:1006A000A901415051096109710994E0111187C0F4
:1006B00085B5887F836085BD8FC0109280001092C1
:1006C0008100809181008860809381008091810009
:1006D000816080938100E5E9F0E08491E82FF0E00B
:1006E000EE0FFF1FE358FF4F85919491F101849124
:1006F000809322010E94880060E072E18AE790E026
:10070000A70196010E948E06BA01A9014150510924
:1007100061097109113009F058C080918100887F0A
:1007200081608093810050938900409388004092BB
:100730002401509225016092260170922701809138
:100740006F00826080936F0055C01092B0001092CD
:10075000B1008091B00082608093B0008091B100C0
:1007600081608093B100E5E9F0E08491E82FF0E04A
:10077000EE0FFF1FE358FF4F8591949190932D0149
:1007800080932C01F101849180932E010E948800B6
:1007900060E970ED83E090E0A70196010E948E066B
:1007A000BA01A901415051096109710912E093E0B0
:1007B0004F3F51056105710511F00CF068CF809134
:1007C000B100887F892B8093B100113009F4ABCF41
:1007D0001230F1F011110EC047BD40922801509225
:1007E000290160922A0170922B0180916E00826033
:1007F00080936E0069857A858B859C850E94C900EF
:1008000084E00E94FC00C501B4010E94C900DACE58
:100810004093B30040922F01509230016092310119
:100820007092320180917000826080937000E2CFFC
:1008300084E02E960FB6F894DEBF0FBECDBFDF91D9
:10084000CF911F910F91FF90EF90DF90CF90BF90CD
:10085000AF909F908F907F906F905F904F903F9060
:100860002F900C94FC00FC0101900020E9F73197D7
:10087000AF01481B590BBC018CE391E00C94720151
:100880001F920F920FB60F9211242F933F938F93C5
:100890009F93AF93BF938091340190913501A091C4
:1008A0003601B09137013091330123E0230F2D370A
:1008B00058F50196A11DB11D209333018093340199
:1008C00090933501A0933601B093370180913801A0
:1008D00090913901A0913A01B0913B010196A11D7F
:1008E000B11D8093380190933901A0933A01B093E0
:1008F0003B01BF91AF919F918F913F912F910F90AD
:100900000FBE0F901F90189526E8230F0296A11D89
:10091000B11DD2CF1F920F920FB60F9211242F93B9
:100920003F934F935F936F937F938F939F93AF9377
:10093000BF93EF93FF9380912F0190913001A0918D
:100940003101B0913201892B8A2B8B2BD1F19091FF
:100950002E01E0912C01F0912D0180818927808367
:1009600080912F0190913001A0913101B09132011D
:10097000181619061A061B069CF480912F019091F7
:100980003001A0913101B09132010197A109B10963
:1009900080932F0190933001A0933101B0933201E5
:1009A000FF91EF91BF91AF919F918F917F916F9147
:1009B0005F914F913F912F910F900FBE0F901F901D
:1009C0001895809100010E94FC00EACF1F920F92BF
:1009D0000FB60F9211242F933F934F935F936F9312
:1009E0007F938F939F93AF93BF93EF93FF938CE38A
:1009F00091E00E94F001FF91EF91BF91AF919F9123
:100A00008F917F916F915F914F913F912F910F90B7
:100A10000FBE0F901F9018951F920F920FB60F9256
:100A200011242F938F939F93EF93FF93E0914C01A9
:100A3000F0914D018081E0915201F091530182FDCE
:100A40001BC09081809155018F5F8F73209156015B
:100A5000821741F0E0915501F0E0E45CFE4F958F84
:100A600080935501FF91EF919F918F912F910F905E
:100A70000FBE0F901F9018958081F4CFCF93DF9316
:100A8000CDB7DEB7A1970FB6F894DEBF0FBECDBFCE
:100A9000789484B5826084BD84B5816084BD85B559
:100AA000826085BD85B5816085BD80916E00816065
:100AB00080936E001092810080918100826080930B
:100AC000810080918100816080938100809180000D
:100AD0008160809380008091B10084608093B10038
:100AE0008091B00081608093B00080917A00846032
:100AF00080937A0080917A00826080937A0080915E
:100B00007A00816080937A0080917A008068809377
:100B10007A001092C100E0914C01F0914D0182E009
:100B20008083E0914801F09149011082E0914A01EF
:100B3000F0914B0180E1808310925401E0915001CB
:100B4000F091510186E08083E0914E01F0914F01D8
:100B5000808180618083E0914E01F0914F0180811E
:100B600088608083E0914E01F0914F018081806820
:100B70008083E0914E01F0914F0180818F7D8083D1
:100B80000E94880080E4382E44244A9493E0592E31
:100B9000612C712C2AE0C22ED12CE12CF12C309248
:100BA0007C0080917A00806480937A0080917A0042
:100BB00086FDFCCFA0917800B091790024E630E06A
:100BC0000E94F206A30192010E948E0649015A0179
:100BD000A90168EC70E080E293E00E947F0266E980
:100BE00070E080E090E00E94C900A40168EC70E031
:100BF0008CED95E00E947F0266E970E080E090E075
:100C00000E94C900A4016AEF70E084EC99E00E94A0
:100C10007F0260E971E080E090E00E94C90083E11A
:100C200091E00E943304B7FE36C06DE28CE391E0A0
:100C30000E94120222273327A901281939094A09DB
:100C40005B0919A28E010F5D1F4FCA01B901A701EF
:100C500096010E94AD06605DF80162938F01211537
:100C600031054105510589F70115110519F0C80134
:100C70000E9433048FE191E00E94330480E090E011
:100C8000892B09F48CCF0E94DC01882309F487CFDB
:100C90000E94000084CFA501940119A28E010F5D6E
:100CA0001F4FCA01B901A70196010E94AD06605D00
:100CB000F80162938F01211531054105510589F72E
:100CC000D3CFECE3F1E01382128288EE93E0A0E050
:100CD000B0E084839583A683B78385E091E0918318
:100CE000808385EC90E09587848784EC90E09787FB
:100CF000868780EC90E0918B808B81EC90E0938BE9
:100D0000828B82EC90E0958B848B86EC90E0978BC5
:100D1000868B118E128E138E148E0895052E97FBDE
:100D20001EF400940E94A50657FD07D00E94AD0650
:100D300007FC03D04EF40C94A506509540953095D1
:100D400021953F4F4F4F5F4F089590958095709537
:100D500061957F4F8F4F9F4F0895A1E21A2EAA1BD6
:100D6000BB1BFD010DC0AA1FBB1FEE1FFF1FA2175B
:100D7000B307E407F50720F0A21BB30BE40BF50B58
:100D8000661F771F881F991F1A9469F760957095E1
:100D9000809590959B01AC01BD01CF010895A29F64
:100DA000B001B39FC001A39F700D811D1124911D3F
:100DB000B29F700D811D1124911D089597FB072E80
:100DC00016F4009407D077FD09D00E94F90607FCBD
:100DD00005D03EF4909581959F4F0895709561954B
:100DE0007F4F08950E94CF06B7FF0895821B930B93
:100DF0000895AA1BBB1B51E107C0AA1FBB1FA61762
:100E0000B70710F0A61BB70B881F991F5A95A9F7B3
:100E100080959095BC01CD010895EE0FFF1F0590C0
:100E2000F491E02D0994F894FFCFFF000000001228
:100E30000272019F015F02D001AE01C201566F6CC8
:0C0E4000756D652025203D20000D0A0086
:107E0000112484B714BE81FFF0D085E080938100F7
:107E100082E08093C00088E18093C10086E0809377
:107E2000C20080E18093C4008EE0C9D0259A86E02C
:107E300020E33CEF91E0309385002093840096BBD3
:107E4000B09BFECF1D9AA8958150A9F7CC24DD24C4
:107E500088248394B5E0AB2EA1E19A2EF3E0BF2EE7
:107E6000A2D0813461F49FD0082FAFD0023811F036
:107E7000013811F484E001C083E08DD089C08234E0
:107E800011F484E103C0853419F485E0A6D080C0E4
:107E9000853579F488D0E82EFF2485D0082F10E0AE
:107EA000102F00270E291F29000F111F8ED06801E7
:107EB0006FC0863521F484E090D080E0DECF843638
:107EC00009F040C070D06FD0082F6DD080E0C81688
:107ED00080E7D80618F4F601B7BEE895C0E0D1E017
:107EE00062D089930C17E1F7F0E0CF16F0E7DF06D8
:107EF00018F0F601B7BEE89568D007B600FCFDCFD4
:107F0000A601A0E0B1E02C9130E011968C91119780
:107F100090E0982F8827822B932B1296FA010C0160
:107F200087BEE89511244E5F5F4FF1E0A038BF0790
:107F300051F7F601A7BEE89507B600FCFDCF97BE46
:107F4000E89526C08437B1F42ED02DD0F82E2BD052
:107F50003CD0F601EF2C8F010F5F1F4F84911BD097
:107F6000EA94F801C1F70894C11CD11CFA94CF0C13
:107F7000D11C0EC0853739F428D08EE10CD085E9AC
:107F80000AD08FE07ACF813511F488E018D01DD067
:107F900080E101D065CF982F8091C00085FFFCCF94
:107FA0009093C60008958091C00087FFFCCF809118
:107FB000C00084FD01C0A8958091C6000895E0E648
:107FC000F0E098E1908380830895EDDF803219F02E
:107FD00088E0F5DFFFCF84E1DECF1F93182FE3DFCA
:107FE0001150E9F7F2DF1F91089580E0E8DFEE27F6
:047FF000FF270994CA
:027FFE00040479
:00000001FF
