:100000000C9458000C9480000C9480000C94800098
:100010000C9480000C9480000C9480000C94800060
:100020000C9480000C9480000C9480000C94800050
:100030000C9480000C9480000C9480000C94800040
:100040000C94DC060C9480000C944C070C9426074E
:100050000C9480000C9480000C9480000C94800020
:100060000C947E070C9480000000000025002800FE
:100070002B00040404040404040402020202020229
:10008000030303030303010204081020408001025C
:1000900004081020010204081020000000080002DB
:1000A00001000003040700000000000000009D089C
:1000B00011241FBECFEFD8E0DEBFCDBF11E0A0E01E
:1000C000B1E0EEE4FBE102C005900D92AA32B10767
:1000D000D9F722E0AAE2B1E001C01D92A33AB2072B
:1000E000E1F710E0C8E5D0E004C02197FE010E94CE
:1000F0007A0CC735D107C9F70E94E2080C94A50D08
:100100000C9400000895089590E0FC01E656FF4F1E
:100110002491FC01EA57FF4F3491FC01EE58FF4F48
:10012000E491EE23C9F0222339F0233001F1A8F441
:10013000213019F1223029F1F0E0EE0FFF1FE859CC
:10014000FF4FA591B4918FB7F894EC91611126C03F
:1001500030953E233C938FBF08952730A9F0283077
:10016000C9F0243049F7809180008F7D03C08091D1
:1001700080008F7780938000DFCF84B58F7784BD38
:10018000DBCF84B58F7DFBCF8091B0008F778093DC
:10019000B000D2CF8091B0008F7DF9CF3E2BDACF67
:1001A0003FB7F8948091730190917401A09175010B
:1001B000B091760126B5A89B05C02F3F19F0019696
:1001C000A11DB11D3FBFBA2FA92F982F8827BC01B1
:1001D000CD01620F711D811D911D42E0660F771FD9
:1001E000881F991F4A95D1F708958F929F92AF92D9
:1001F000BF92CF92DF92EF92FF924B015C010E947F
:10020000D0006B017C010E94D0006C197D098E0921
:100210009F09683E734081059105A8F321E0821A89
:100220009108A108B10888EEC80E83E0D81EE11C31
:10023000F11C81149104A104B10429F7FF90EF90FF
:10024000DF90CF90BF90AF909F908F900895AF9226
:10025000BF92CF92DF92EF92FF920F931F93CF93B3
:10026000DF936C017B018B01040F151FEB015E0115
:10027000AE18BF08C017D10759F06991D601ED91AA
:10028000FC910190F081E02DC6010995892B79F749
:10029000C501DF91CF911F910F91FF90EF90DF90FB
:1002A000CF90BF90AF900895FC01538D448D252FC2
:1002B00030E0842F90E0821B930B541710F0CF9600
:1002C000089501970895FC01918D828D981761F032
:1002D000A28DAE0FBF2FB11D5D968C91928D9F5F49
:1002E0009F73928F90E008958FEF9FEF0895FC0128
:1002F000918D828D981731F0828DE80FF11D858DDB
:1003000090E008958FEF9FEF0895FC01918D228D6D
:10031000892F90E0805C9F4F821B91098F739927F2
:1003200008958DEE91E00E94850121E0892B09F46A
:1003300020E0822F089580E090E0892B29F00E9430
:10034000910181110C9400000895FC01A48DA80F67
:10035000B92FB11DA35ABF4F2C91848D90E0019607
:100360008F739927848FA689B7892C93A089B18927
:100370008C91837080648C93938D848D981306C0C8
:100380000288F389E02D80818F7D80830895EF922C
:10039000FF920F931F93CF93DF93EC0181E0888F3F
:1003A0009B8D8C8D98131AC0E889F989808185FF0F
:1003B00015C09FB7F894EE89FF896083E889F989B1
:1003C00080818370806480839FBF81E090E0DF91B3
:1003D000CF911F910F91FF90EF900895F62E0B8D06
:1003E00010E00F5F1F4F0F731127E02E8C8D8E11C1
:1003F0000CC00FB607FCFACFE889F989808185FF28
:10040000F5CFCE010E94A501F1CFEB8DEC0FFD2FB2
:10041000F11DE35AFF4FF0829FB7F8940B8FEA89E2
:10042000FB8980818062CFCFCF93DF93EC01888DF1
:100430008823B9F0AA89BB89E889F9898C9185FD5F
:1004400003C0808186FD0DC00FB607FCF7CF8C91ED
:1004500085FFF2CF808185FFEDCFCE010E94A501FF
:10046000E9CFDF91CF91089520914B01260F3327DB
:10047000331F21323105ECF42091C301FC0190E0DF
:1004800080E0243069F082E00895A0914B01219131
:10049000AC01455D5E4FA40FB52FB11D2C930196A5
:1004A000861798F380914B01680F60934B0180E0B1
:1004B000089581E008951092C30181E08093C20104
:1004C00010929D0161E082E10E94840061E083E17D
:1004D0000E948400E9EBF0E080818E7F8083808140
:1004E0008D7F808388E48093B80085E48093BC008E
:1004F000089510927C0110927B011092CA01109213
:10050000EC010E945B0282E890E090937A01809374
:10051000790183E890E090937801809377010895C2
:10052000CF93DF9391E090932A018823B9F0C09193
:10053000B800D091BA008091BC008A7B8093BC0047
:1005400060E082E10E94840060E083E10E94840018
:100550000E945B02D093BA00C093B800DF91CF91A4
:1005600008958F929F92AF92BF92CF92DF92EF92B7
:10057000FF920F931F93CF93DF93D091EC01D13271
:1005800008F0D7C0182FC091EB010E94D0006B017A
:100590007C018091C30181116BC082E08093C30113
:1005A0001093C2018FEF8093C1011092C001D093CC
:1005B000BF01ABECB1E0EFE9F1E080E0D81391C00E
:1005C00010929E0180919E01CC0FC82BC0939E017A
:1005D00080919D01813009F088C010929D010E9498
:1005E000D0006B017C0180919E018093BB008091C3
:1005F000C5019091C601A091C701B091C801892B96
:100600008A2B8B2BA1F00E94D0000091C501109184
:10061000C6012091C7013091C8016C197D098E096E
:100620009F09061717072807390708F442C0809169
:10063000BC0083FDD8CF85EC8093BC000E94D00025
:100640006B017C018091C301823009F450C080911C
:10065000C1018F3F09F46FC08091C101803209F45C
:100660006CC08091C101803309F469C084E026C068
:100670008091C5019091C601A091C701B091C801B8
:10068000892B8A2B8B2B09F484CF0E94D000809079
:10069000C5019090C601A090C701B090C8016C1927
:1006A0007D098E099F0986169706A806B90608F0E7
:1006B00070CF8091C4010E94900285E01092CA011F
:1006C0001092EC011092C901DF91CF911F910F910F
:1006D000FF90EF90DF90CF90BF90AF909F908F9062
:1006E00008959D9191938F5F69CF85EEA5CF8091FD
:1006F000C5019091C601A091C701B091C801892B95
:100700008A2B8B2B09F49ECF0E94D0000091C5014B
:100710001091C6012091C7013091C8016C197D0963
:100720008E099F09061717072807390708F08ACF8F
:10073000C0CF81E0C3CF80E0C1CF82E0BFCF83E0F4
:10074000BDCF1F93CF93DF93EA01122FDC011196E7
:100750008D919C91DC01ED91FC910280F381E02D63
:100760000995C817D90729F4812F0E94B10291E099
:10077000811190E0892FDF91CF911F910895CF9340
:10078000DF93EC018B818823A1F0888191E0909325
:10079000C9018093EB011092CA011092EC0181E033
:1007A0000E94B10291E0811190E0892FDF91CF91F9
:1007B00008950E94790281E08B83CE010E94BF03DD
:1007C000982F8111E2CFF1CF0895E0917C018091C3
:1007D0007B01E81730F4F0E0E358FE4F808190E0B1
:1007E00008958FEF9FEF089590917C0180917B0198
:1007F0002FEF3FEF981748F4E92FF0E0E358FE4F52
:10080000208130E09F5F90937C01C9010895809121
:100810007B0190917C01891B990B0895CF92DF9207
:10082000EF92FF920F931F93CF93DF937C01CB0145
:100830008A012091C901222389F0EB016B01C40ECA
:10084000D51ECC15DD0569F06991D701ED91FC91BC
:100850000190F081E02DC7010995F3CF642F0E942C
:100860003402C801DF91CF911F910F91FF90EF905B
:10087000DF90CF900895CF93DF931F92CDB7DEB76F
:1008800069832091C9012223F9F02091EC012032E3
:1008900058F021E030E0FC013383228390E080E0D7
:1008A0000F90DF91CF9108958091CA01E82FF0E079
:1008B000E553FE4F998190838F5F8093CA018093A7
:1008C000EC0181E090E0ECCF61E0CE0101960E9466
:1008D0003402F7CF90E080E008951F93CF93DF9329
:1008E00000D000D01F92CDB7DEB7182F653B710541
:1008F00014F064EB70E077FF02C070E060E020E984
:1009000031E0DB010E94730C24EB30E040E050E06A
:100910000E94EC09DA01C90182599F4FAF4FBF4FC6
:10092000110F110F1A5F19831A821B828C839D830A
:100930008091990290919A02FC01248135812530A1
:10094000310590F0208131E03093C9012093EB0113
:100950001092CA011092EC0121E045E050E0BE0186
:100960006F5F7F4F0E94A1030F900F900F900F9029
:100970000F90DF91CF911F910895CF93DF9300D017
:10098000CDB7DEB789836A838091990290919A02EC
:10099000FC01248135812230310590F0208131E045
:1009A0003093C9012093EB011092CA011092EC011F
:1009B00021E042E050E0BE016F5F7F4F0E94A10343
:1009C0000F900F90DF91CF9108952F923F924F9209
:1009D0005F926F927F928F929F92AF92BF92CF92CF
:1009E000DF92EF92FF920F931F93CF93DF931F92AB
:1009F000CDB7DEB76B017C0120E030E040E85FE37B
:100A00000E94A90A87FDECC020E030EC4AE555E4DD
:100A1000C701B6010E94010C18160CF4E8C06091E1
:100A20009B0270919C0280919D0290919E020E9477
:100A30004F0B4B015C0120E030E040E855E4C7017A
:100A4000B6010E94060C9B01AC01C501B4010E94D5
:100A5000AE0A20E030E040E05FE30E943D0A20E083
:100A600030E040E85FE30E943C0A6B017C0120E03B
:100A700030E040E450E40E94A90A87FDC0C020E0B5
:100A800030E04FE753E4C701B6010E94010C18168D
:100A90000CF4BBC0C701B6010E94200B962E198230
:100AA000E0909902F0909A02D70114968D919C9152
:100AB0001597892B09F41AC18C9191E09093C90183
:100AC0008093EB011092CA011092EC0120E041E00A
:100AD00050E0BE016F5F7F4FC7010E94A1038823D2
:100AE00009F404C18824839485EC382EF701C4806E
:100AF000D58001E0C114D10409F400E0A02EB12C8E
:100B0000D7012C900E94D0002B013C018091C301A1
:100B1000811182C0102F8092C3010093C201BFEFE8
:100B2000B093C1011092C0018FEF800F8093BF017D
:100B300080929E0180919E01220C282A20929E0183
:100B400080919D01813009F0A8C010929D010E9402
:100B5000D0002B013C0180919E018093BB008091CD
:100B6000C5019091C601A091C701B091C801892B20
:100B70008A2B8B2BA1F00E94D0002091C5013091CF
:100B8000C6014091C7015091C801641975098609D1
:100B90009709261737074807590708F45EC0809160
:100BA000BC0083FDD8CF3092BC000E94D0002B0146
:100BB0003C018091C301813009F473C08091C00170
:100BC000801710F41091C001EFE9F1E0ADE7B1E05A
:100BD00080E0811709F446C091919D938F5FF9CF12
:100BE000C12CD12C40E8E42E4FE3F42E18CFC12CB9
:100BF00030ECD32E3AE5E32E35E4F32E10CFC12CA2
:100C0000D12C20E4E22EFE2C45CFC12CD12C9FE725
:100C1000E92E93E4F92E3ECF8091C5019091C60153
:100C2000A091C701B091C801892B8A2B8B2B09F4A5
:100C30006DCF0E94D0002091C5013091C601409136
:100C4000C7015091C80164197509860997092617CB
:100C500037074807590708F059CF8091C4010E940F
:100C6000900210E010927C0110937B011A151B0476
:100C7000E9F590E080E08A159B05A8F5D70111966B
:100C80008D919C91DC01ED91FC910284F385E02D26
:100C90000995898381E090E0EECFE5EEE093BC001A
:100CA00084CF8091C5019091C601A091C701B091F8
:100CB000C801892B8A2B8B2B09F47BCF0E94D00093
:100CC0002091C5013091C6014091C7015091C801E2
:100CD00064197509860997092617370748075907C0
:100CE00008F067CFBACFCD2809F400CF1981612F62
:100CF0006F76606180E00E94BD04692D8EEF0E94D6
:100D0000BD04612F80E00E94BD0465E070E080E0DA
:100D100090E00E94F500612F606A80E00E94BD04AF
:100D20000F90DF91CF911F910F91FF90EF90DF9087
:100D3000CF90BF90AF909F908F907F906F905F907B
:100D40004F903F902F90089585ED8093BC00809147
:100D5000C5019091C601A091C701B091C801079645
:100D6000A11DB11D23E0B695A795979587952A9566
:100D7000D1F72091BC0024FD03C01092C301089557
:100D80004091C5015091C6016091C7017091C801A1
:100D9000452B462B472B69F30097A105B10541F080
:100DA0002AE22A95F1F700C00197A109B109E1CF24
:100DB0008091C4010C9490021F920F920FB60F9273
:100DC00011242F933F938F939F93AF93BF93809161
:100DD0006F0190917001A0917101B09172013091F9
:100DE0006E0123E0230F2D3758F50196A11DB11D8B
:100DF00020936E0180936F0190937001A093710115
:100E0000B09372018091730190917401A09175016A
:100E1000B09176010196A11DB11D8093730190934D
:100E20007401A0937501B0937601BF91AF919F912A
:100E30008F913F912F910F900FBE0F901F9018959B
:100E400026E8230F0296A11DB11DD2CF1F920F924B
:100E50000FB60F9211242F933F934F935F936F938D
:100E60007F938F939F93AF93BF93EF93FF938DEEF9
:100E700091E00E94A501FF91EF91BF91AF919F91E9
:100E80008F917F916F915F914F913F912F910F9033
:100E90000FBE0F901F9018951F920F920FB60F92D2
:100EA00011242F938F939F93EF93FF93E091FD0174
:100EB000F091FE018081E0910302F091040282FD35
:100EC0001BC09081809106028F5F8F732091070273
:100ED000821741F0E0910602F0E0E351FE4F958F5A
:100EE00080930602FF91EF919F918F912F910F9028
:100EF0000FBE0F901F9018958081F4CF1F920F9214
:100F00000FB60F9211242F933F934F935F936F93DC
:100F10007F938F939F93AF93BF93EF93FF938091B2
:100F2000B900887F803609F44AC0F0F5883209F4A8
:100F3000A7C018F5803109F49BC0B8F4882309F4E0
:100F4000F9C0883009F494C0FF91EF91BF91AF913F
:100F50009F918F917F916F915F914F913F912F91D1
:100F60000F900FBE0F901F901895883109F488C01C
:100F7000803251F78093C10114C0803409F49DC0C0
:100F800040F48033B9F38833F9F68093C10185ECDE
:100F9000B0C0803509F485C0883509F496C088341E
:100FA00099F60E94A406D0CF883909F48CC038F590
:100FB000883729F050F4883611F0803729F683E01D
:100FC0008093C30110926D0157C0883809F47BC02B
:100FD000803919F0803809F0B7CF80916D018032E7
:100FE00008F071C0E0916D0181E08E0F80936D017A
:100FF0008091BB00F0E0E35BFE4F80833DC0803B0F
:1010000039F0E0F4803A09F479C0883A09F09CCFCD
:1010100084E08093C30110924C0110924B01E09147
:101020007901F0917A01099580914B0181110FC0EE
:1010300081E080934B0110922B0109C0803C09F4A0
:10104000A6CF883C09F4A3CF883B09F07DCFE0917F
:101050004C0181E08E0F80934C01F0E0E55DFE4F86
:1010600080818093BB0090914C0180914B0129C0FD
:1010700080919E018093BB0085EC8093BC0064CF7F
:101080009091C0018091BF01981758F5E091C0017F
:1010900081E08E0F8093C001F0E0E156FE4F808129
:1010A000E9CFE091C00181E08E0F8093C001809173
:1010B000BB00F0E0E156FE4F80839091C00180912B
:1010C000BF019817C8F285E8D8CFE091C00181E050
:1010D0008E0F8093C0018091BB00F0E0E156FE4F7F
:1010E00080838091C20181115CCF81E080939D015A
:1010F00084EA8093BC001092C30126CF85EC8093D4
:10110000BC001092C30180916D01803230F4E091F7
:101110006D01F0E0E35BFE4F108260916D0170E0C5
:10112000E0917701F09178018DE491E009951092BA
:101130006D010ACF1092C10134CFEDEEF1E01382C0
:10114000128288EE93E0A0E0B0E084839583A683CA
:10115000B7832AE031E03183208325EC30E0358706
:10116000248724EC30E03787268720EC30E0318B71
:10117000208B21EC30E0338B228B22EC30E0358B5E
:10118000248B26EC30E0378B268B118E128E138E3B
:10119000148EEAE8F2E01382128284839583A68398
:1011A000B7838CE191E091838083A6E9B2E080E48B
:1011B0008C931296FC93EE93119714961C921E92A8
:1011C00013970895789484B5826084BD84B5816056
:1011D00084BD85B5826085BD85B5816085BD809102
:1011E0006E00816080936E0010928100809181007A
:1011F0008260809381008091810081608093810072
:10120000809180008160809380008091B100846033
:101210008093B1008091B00081608093B000809194
:101220007A00846080937A0080917A008260809353
:101230007A0080917A00816080937A0080917A00B0
:10124000806880937A001092C100E091FD01F091D6
:10125000FE0182E08083E091F901F091FA011082B1
:10126000E091FB01F091FC0180E180831092050286
:10127000E0910102F091020286E08083E091FF019B
:10128000F0910002808180618083E091FF01F09104
:101290000002808188608083E091FF01F09100026C
:1012A000808180688083E091FF01F091000280815D
:1012B0008F7D80830E9479028091990290919A0299
:1012C000009711F00E941C0D86E090E00E94800CB7
:1012D000EC018091970290919802209196022883C8
:1012E0009A8389831B8280E290E09D838C83D093D4
:1012F0009A02C09399020E94790281E08B83CE0109
:101300000E94BF038823E1F060E880E00E94BD04F2
:101310006AE070E080E090E00E94F50080E498E7E9
:10132000ADE7B1E080939B0290939C02A0939D0255
:10133000B0939E0260E070E08AE794E40E94E504C6
:1013400060E070E088E492E40E94E5046AE070E006
:1013500080E090E00E94F500C0E06AE570E08C2F2C
:101360000E946D04CF5FC630C1F780E0E82E80E0B8
:10137000F82ED0E0C0E010E0BE01812F0E946D0485
:101380001F5F1630C9F768EE73E080E090E00E94BE
:10139000F5002596C93BD10571F7C4EBD0E010E00C
:1013A000BE01812F0E946D041F5F1630C9F768EEE1
:1013B00073E080E090E00E94F5002597CB3F8FEF2F
:1013C000D80769F7E114F104A1F20E949101882382
:1013D00081F20E940000CDCF052E97FB1EF40094F1
:1013E0000E94030A57FD07D00E940B0A07FC03D096
:1013F0004EF40C94030A50954095309521953F4F3B
:101400004F4F5F4F089590958095709561957F4FF0
:101410008F4F9F4F0895A1E21A2EAA1BBB1BFD01FF
:101420000DC0AA1FBB1FEE1FFF1FA217B307E407C3
:10143000F50720F0A21BB30BE40BF50B661F771F1B
:10144000881F991F1A9469F76095709580959095FB
:101450009B01AC01BD01CF010895A29FB001B39FD4
:10146000C001A39F700D811D1124911DB29F700DAD
:10147000811D1124911D08955058BB27AA270E9451
:10148000540A0C94C70B0E94B90B38F00E94C00B91
:1014900020F039F49F3F19F426F40C94B60B0EF4A7
:1014A000E095E7FB0C94B00BE92F0E94D80B58F3A2
:1014B000BA17620773078407950720F079F4A6F539
:1014C0000C94FA0B0EF4E0950B2EBA2FA02D0B0105
:1014D000B90190010C01CA01A0011124FF27591B79
:1014E00099F0593F50F4503E68F11A16F040A22F7F
:1014F000232F342F4427585FF3CF469537952795F0
:10150000A795F0405395C9F77EF41F16BA0B620BEE
:10151000730B840BBAF09150A1F0FF0FBB1F661F35
:10152000771F881FC2F70EC0BA0F621F731F841F78
:1015300048F4879577956795B795F7959E3F08F09E
:10154000B0CF9395880F08F09927EE0F9795879560
:1015500008950E948C0B08F481E008950E94C20A4D
:101560000C94C70B0E94C00B58F00E94B90B40F0BE
:1015700029F45F3F29F00C94B00B51110C94FB0B34
:101580000C94B60B0E94D80B68F39923B1F3552342
:1015900091F3951B550BBB27AA2762177307840786
:1015A00038F09F5F5F4F220F331F441FAA1FA9F31C
:1015B00035D00E2E3AF0E0E832D091505040E6950A
:1015C000001CCAF72BD0FE2F29D0660F771F881F6B
:1015D000BB1F261737074807AB07B0E809F0BB0B5E
:1015E000802DBF01FF2793585F4F3AF09E3F510572
:1015F00078F00C94B00B0C94FB0B5F3FE4F3983E37
:10160000D4F3869577956795B795F7959F5FC9F75A
:10161000880F911D9695879597F90895E1E0660FDB
:10162000771F881FBB1F621773078407BA0720F054
:10163000621B730B840BBA0BEE1F88F7E0950895BD
:101640000E94E00B88F09F5798F0B92F9927B75167
:10165000B0F0E1F0660F771F881F991F1AF0BA9556
:10166000C9F714C0B13091F00E94FA0BB1E00895AF
:101670000C94FA0B672F782F8827B85F39F0B93FA1
:10168000CCF3869577956795B395D9F73EF4909509
:101690008095709561957F4F8F4F9F4F0895E89487
:1016A00009C097FB3EF490958095709561957F4FAA
:1016B0008F4F9F4F9923A9F0F92F96E9BB27939558
:1016C000F695879577956795B795F111F8CFFAF468
:1016D000BB0F11F460FF1BC06F5F7F4F8F4F9F4F99
:1016E00016C0882311F096E911C0772321F09EE8F7
:1016F000872F762F05C0662371F096E8862F70E05D
:1017000060E02AF09A95660F771F881FDAF7880F36
:101710009695879597F90895990F0008550FAA0B8C
:10172000E0E8FEEF16161706E807F907C0F01216F4
:101730001306E407F50798F0621B730B840B950BF7
:1017400039F40A2661F0232B242B252B21F408954C
:101750000A2609F4A140A6958FEF811D811D0895E9
:1017600097F99F6780E870E060E008959FEF80EC54
:10177000089500240A9416161706180609060895F7
:1017800000240A9412161306140605060895092E5D
:101790000394000C11F4882352F0BB0F40F4BF2BCC
:1017A00011F460FF04C06F5F7F4F8F4F9F4F08950C
:1017B00057FD9058440F551F59F05F3F71F0479502
:1017C000880F97FB991F61F09F3F79F087950895E7
:1017D000121613061406551FF2CF4695F1DF08C006
:1017E000161617061806991FF1CF86957105610523
:1017F00008940895E894BB2766277727CB0197F9CB
:1018000008950E948C0B08F48FEF08950E94190C24
:101810000C94C70B0E94B90B38F00E94C00B20F04B
:10182000952311F00C94B00B0C94B60B11240C946E
:10183000FB0B0E94D80B70F3959FC1F3950F50E0FE
:10184000551F629FF001729FBB27F00DB11D639F72
:10185000AA27F00DB11DAA1F649F6627B00DA11D18
:10186000661F829F2227B00DA11D621F739FB00DBE
:10187000A11D621F839FA00D611D221F749F33272E
:10188000A00D611D231F849F600D211D822F762FC7
:101890006A2F11249F5750409AF0F1F088234AF0A4
:1018A000EE0FFF1FBB1F661F771F881F9150504010
:1018B000A9F79E3F510580F00C94B00B0C94FB0BE4
:1018C0005F3FE4F3983ED4F3869577956795B79597
:1018D000F795E7959F5FC1F7FE2B880F911D9695B1
:1018E000879597F908950E942D0AB7FF0895821BE6
:1018F000930B0895EE0FFF1F0590F491E02D0994CE
:101900000F931F93CF93DF938230910510F482E001
:1019100090E0E091A102F091A20230E020E0B0E07E
:10192000A0E0309799F42115310509F44AC0281B2D
:10193000390B24303105D8F58A819B8161157105F9
:1019400089F1FB0193838283FE0111C040815181A3
:101950000281138148175907E0F04817590799F495
:10196000109761F012960C93129713961C9332966F
:10197000CF01DF91CF911F910F9108950093A102A4
:101980001093A202F4CF2115310551F042175307ED
:1019900038F0A901DB019A01BD01DF01F801C1CFD7
:1019A000EF01F9CF9093A2028093A102CDCFFE0167
:1019B000E20FF31F819391932250310939832883D9
:1019C000D7CF20919F023091A002232B41F4209188
:1019D0000201309103013093A00220939F022091D5
:1019E0000001309101012115310541F42DB73EB7B9
:1019F0004091040150910501241B350BE0919F0299
:101A0000F091A002E217F307A0F42E1B3F0B28175A
:101A1000390778F0AC014E5F5F4F2417350748F067
:101A20004E0F5F1F5093A00240939F0281939193AA
:101A30009FCFF0E0E0E09CCFCF93DF930097E9F0F9
:101A4000FC01329713821282A091A102B091A202EE
:101A5000ED0130E020E01097A1F420813181820F68
:101A6000931F20919F023091A0022817390709F097
:101A700061C0F093A002E0939F02DF91CF9108959F
:101A8000EA01CE17DF07E8F54A815B819E01411527
:101A90005105B1F7E901FB83EA8349915991C40FDC
:101AA000D51FEC17FD0761F4808191810296840FA8
:101AB000951FE90199838883828193819B838A831F
:101AC000F0E0E0E012968D919C9113970097B9F5A4
:101AD0002D913C911197CD010296820F931F209179
:101AE0009F023091A0022817390739F6309751F537
:101AF0001092A2021092A102B093A002A0939F02A2
:101B0000BCCFD383C28340815181840F951FC817F6
:101B1000D90761F44E5F5F4F88819981480F591F43
:101B2000518340838A819B81938382832115310570
:101B300009F0B0CFF093A202E093A1029ECFFD0185
:0E1B4000DC01C0CF13821282D7CFF894FFCF02
:101B4E000000A302800000000000C701270154011D
:101B5E001402850163017701000000003B040E04AE
:0A1B6E006A04E4030704F403E5032E
:00000001FF
